:020000040800F2
:1000000068080020DD0100084D5D0008A13C0008E3
:10001000495D00086D0E00080D6200080000000038
:1000200000000000000000000000000089610008DE
:10003000710E000800000000515D00088D6100088D
:10004000F7010008F7010008F7010008F7010008B0
:10005000F7010008F7010008D50F0008E50F0008B8
:10006000F7010008F7010008F7010008F701000890
:10007000F7010008F7010008F7010008F701000880
:10008000F7010008F7010008F7010008F701000870
:10009000F7010008F7010008F7010008F701000860
:1000A000F7010008F7010008F70100089561000852
:1000B000A1610008F7010008F7010008F701000836
:1000C000F7010008F7010008F70100088D6000083B
:1000D000F7010008F7010008F7010008F701000820
:1000E000DD0F0008F7010008F701000800F002F832
:1000F00000F064F814A696E8000CB244B344DA4564
:1001000001D100F05BF8BAE80F000FA696E83000C6
:10011000A5EB040504EB0607AAEB0704A7F101070A
:100120004FEA15154FEA3414A4F10104AC4201D38F
:1001300000F044F813F0010F18BFFB1A43F001035D
:1001400000F001F8DBE7184750B1000070B1000083
:10015000103A24BF78C878C1FAD8520724BF30C8F3
:1001600030C144BF04680C60704700007047000055
:100170000023002400250026103A28BF78C1FBD8B0
:10018000520728BF30C148BF0B607047662907F08F
:100190000286642900F0D480002070471FB59DE8D6
:1001A000030000F0C5F900F081FC040000200021EC
:1001B00007F016F8E0601FBD10B510BD00F094FD0B
:1001C0001146FFF7EBFF06F071F800F0B2FD03B443
:1001D000FFF7F2FF03BC00F023FE00000948804750
:1001E00009480047FEE7FEE7FEE7FEE7FEE7FEE719
:1001F000FEE7FEE7FEE7FEE704480549054A064B31
:100200007047000091610008ED00000868020020BE
:1002100068080020680400206804002070B50646C5
:1002200000F06AF9056806F10B0020F00704B442FB
:100230009CBF002070BD2B466A68BAB11068A0420E
:1002400010D304F1080188423CBF5068586007D3BE
:100250005168101941601168091B016058601460F1
:10026000101D70BD13465268002AE7D1214628466A
:1002700000F04AF90028DED170BD70B50446051FB4
:1002800000F03AF90068002C14BF446870BD002CDF
:1002900018BFAC423CBF20466468F8D301680A1816
:1002A000AA4218BF456003D12A680546114401607F
:1002B00028684119A1421CBF6C6070BD616869600B
:1002C00021680844286070BD0FB41CB5074B06AA0E
:1002D0007B4469460090059800F0CBFB00206946FE
:1002E00000F0DAFB1CBC5DF814FB0000C507000041
:1002F00070B5044685690068C10601D5302600E066
:100300002026C00707D070BDD4E9012130469047B0
:10031000206A401C20626D1EF6D570BD70B5044683
:1003200085690078C00707D170BDD4E9012120207C
:100330009047206A401C20626D1EF6D570BD0000FB
:100340002DE9F0410646002410687529314616A5AE
:1003500010D0AFF30080002802DA404213A507E076
:1003600031688A0701D512A502E0490704D511A515
:10037000012401E0AFF3008000210A2206F12407E6
:1003800009E0B0FBF2FCB0FBF2F302FB1C003030E2
:1003900078541846491C0028F3D123462A46304693
:1003A000BDE8F04100F0F9B8000000002D000000A9
:1003B0002B000000200000002DE9F05F8946044674
:1003C0004FF0000ADFF824B1FB44C0F820A020461B
:1003D000E168884700287DD0252806D0D4E901218E
:1003E0009047206A401C2062F1E700255F462046C6
:1003F000E16888472028064607DB312E05D2B81968
:1004000010F8200C08B10543F1E7A80701D525F045
:100410000405C4F81CA00027C4F818A02A2E09D08F
:10042000304606F0D5FE38B304EB8708303EC8F8F6
:10043000186019E059F8041B204604EB870291610B
:10044000E1688847012F064618D1E069002820DAC4
:1004500025F020051DE0D8F8180000EB800006EB21
:1004600040003038C8F818002046E1688847064642
:1004700006F0AEFE0028EED1012F0AD02E2E08D1B4
:100480002046E16888477F1C0646022F45F020057C
:10049000C4DBA069002803DA404245F00105A061F1
:1004A000E80701D025F01005A6B1A6F141001928F2
:1004B00002D8203645F400654A463146204625607C
:1004C0004D46FFF763FE60B1012807D0ED1D25F012
:1004D000070000E007E000F1080978E705F10409EA
:1004E00075E730467AE7206ABDE8F09FCE790000D4
:1004F00070477047704700000048704718000020A0
:10050000704770477047704738B504460A46002068
:100510006946AFF30080002808BF38BD0246009945
:10052000204600F0C7FA012038BD012000F0D4BBFE
:10053000F8B5AFF30080054600200C460C2000BF44
:100540000646A819A0420DD9324669460020AFF3ED
:100550000080070008BF00F0BFFB0098A04218BF52
:100560000546C419FFF7C8FF05600746F01D20F0D7
:1005700007004619284600F00AF8B44208BFF8BD43
:10058000A21B31463868BDE8F84000F093BA00215C
:100590000160416070470C2070472DE9F0470D461F
:1005A00099469246044600F124080168880604D55D
:1005B000E06921F01001216000E00120A84201DD86
:1005C000471B00E00027A1697A1902EB0900081A0D
:1005D000A0612078C00602D42046FFF789FE0026DD
:1005E00008E0D4E901211AF806009047206A401C6F
:1005F000761C20624E45F4DB2078C0060AD52046E2
:10060000FFF776FE06E0D4E9012130209047206A0A
:10061000401C2062381EA7F10107F4DC07E0D4E992
:10062000012118F805009047206A401C2062281E0E
:10063000A5F10105F3DC2046FFF770FE20780006E7
:1006400002D50220BDE8F0870120FBE72DE9FF4F2E
:100650000C461E464FF0FF378BB0D2E90001DDF8A3
:1006600060800A908A46C1F30A5505B93D460021CB
:1006700008464FF00000BAF1000F00F4400005DA20
:1006800000EB80004FF4400101EA50004FEA90591E
:10069000B9F1010F00DDB9460A9850EA4A000ED0C0
:1006A00044F61050A5F2FF3545432F14B8F1000F62
:1006B0001ED07542291E1EDDC9F100021CE0B8F1F2
:1006C000010F4FF0000001D0302103E0F24305E0BC
:1006D0002154401CB042FBDB304600220021215453
:1006E0000B99C1F80880C1E900200FB0BDE8F08F78
:1006F000BD1B6D1CDEE74A4600DA694206A800F021
:1007000079FA06AB93E8070003AB83E8070050468D
:100710000A9906F081F98DE80700A0F500501F380E
:1007200000900398002D0ADD42F21F014A4608445A
:10073000002303A90390684606F0EAFB09E0A0F550
:1007400000504A461F38002303A90390684606F06C
:10075000F4FB8DE807000004000C03D04FF0FF30DD
:10076000410800E01046B8F1000F03D000220092CB
:1007700015461EE0751E05D400F0B6F930326255FC
:100780006D1EF9D5B3460122084302D000227F1C1A
:1007900004E02078302801D100227F1E002A09972A
:1007A00084D01DE0112D07DA00F09EF93032625539
:1007B0006D1C50EA0102F5D1084302D00098C8B17F
:1007C0000EE00021681E05E0235C625C6354225445
:1007D000401E491C8142F7DBAB46A81B401E099016
:1007E000002004F80B000B98099AC0F80880C0E9B3
:1007F000002B7AE711264FF0000857E72DE9F04F5C
:1008000088460446D21D22F0070191B0D1E90001CB
:10081000CDE90A0106F0C8FC02460B98C00F01D0D2
:100820002D2007E02068810701D52B2002E0202140
:1008300001EAC000032A099001D0072A05DB03461C
:100840004146204600F096F90BE12078800601D55C
:10085000E06900E00620B8F1650F814606D0B8F1E6
:10086000660F18D0B8F1670F70D131E00020B9F1F0
:10087000110F009001DB112301E009F101030AAA25
:1008800001A90CA8FFF7E2FEDDE90C70002609F1D2
:100890000105834647E001204B4600904FF000479A
:1008A0000AAA01A90CA8FFF7D1FEDDE90DB00C9949
:1008B0005D46002610B909F101000D18B9EB0500DD
:1008C00003D4C0F1FF3609F10105A5EB09002BE0C7
:1008D000B9F1010F01DA4FF001090020B9F1110F50
:1008E0000090484601DD112300E003460AAA01A951
:1008F0000CA8FFF7ABFEDDE90C704D4600268346E1
:10090000207800070AD4AB4500DA5D4601A8012D26
:1009100004DD411911F8011C302907D04F4502DAD6
:1009200017F1040F04DA012082460FE06D1EEEE796
:10093000002F02DCED1B3E4403E0781CA84200DDE2
:100940007D1CB81B00F1010A4FF00047207800071A
:1009500003D4AA4501DB4FF0FF3A0021B7F1004F65
:100960000DF143088DF8431024D002202B23002FD3
:1009700001DA7F422D230A21021EA0F1010000DCD2
:100980005FB197FBF1FC97FBF1F201FB1C7C174672
:100990000CF1300C08F801CDEEE7A8F1010003706E
:1009A0002188090501D5452100E06521A0F1010854
:1009B00000F8011C09980FA9A1EB0807FF1D00B161
:1009C0000120411901EBEA70A1693844081A401E60
:1009D000A0612078C00602D42046FFF789FC099860
:1009E00028B1D4E901219047206A401C2062207878
:1009F000C00622D52046FFF77BFC1EE0002E04DB5C
:100A0000B34502DD01A8805D00E03020D4E901217A
:100A10009047206A401C2062761CAAF101005FEA20
:100A2000000A0AD100F042F8C0680168405CD4E9CD
:100A300001219047206A401C2062281EA5F1010573
:100A4000DCDC07E0D4E9012118F8010B9047206AAB
:100A5000401C2062381EA7F10107F3DC2046FFF797
:100A60005DFC032011B041E601694A1C026108786F
:100A7000704700B58FB0CDE90131002105910549DE
:100A80007944CDE9031011466846FFF795FC0FB095
:100A900000BD0000E5FFFFFF0A6802F8010B0A60D5
:100AA0007047000000487047100000200048704761
:100AB00030000020034640688C46002818BF88425A
:100AC0003CBF03464068F8D318681844884207D0F2
:100AD0000CF1030020F00700001D411A521A0146D4
:100AE000081D0A60FFF7C9BB30B5B0F10A0271F109
:100AF00000034FEA900E4EEA817EB0EB0E0061EBF0
:100B000091014FEA101E4EEA017E10EB0E0041EB00
:100B100011114FEA102E4EEA016E10EB0E0041EB60
:100B200011214FEA104E4EEA014E10EB0E0041EB40
:100B30001141401841F100014FEAD00040EA4170F4
:100B40004FEAD1014FEA810444EA907410EB80052A
:100B500044EB01046D1944EB0404521BA3414FF014
:100B6000000348BF0A3200D530BD401C41F10001EE
:100B700030BD00002DE9F0411F4604460326016800
:100B8000072A01F4006004DB08B116A505E016A5EC
:100B900003E008B115A500E015A521F010002060C4
:100BA000A069C01EA0610FB1401EA0612046FFF7E2
:100BB0009FFB4FB1D4E9012138469047206A401C81
:100BC0002062C01C206206E0206AFAE7D4E9012115
:100BD00015F8010B9047761EF8D22046FFF79EFBD2
:100BE000BDE8F0814E414E006E616E00494E4600F8
:100BF000696E66002DE9F047814616468AB0354891
:100C000078440DC88DE80D0032487844801C03AC50
:100C10000DC884E80D0041F69B300844372190FB55
:100C2000F1F290FBF1F5A5F1800501FB12041B3CEC
:100C300002D56442012000E00020DFF898A0804641
:100C40000027FA44AAF1BE0A0EE0E0070AD03246B5
:100C5000684607EB470101230AEB810106F06DF9B5
:100C60008DE8070064107F1C002CEED1194F7F44E3
:100C7000AE3F19E0E80715D007EB04100DF1180A94
:100C800090E80E008AE80E00C068F04201D1981981
:100C900008903246012306A903A806F04EF903ABDB
:100CA00083E807006D10641C002DE3D14FF00103B1
:100CB00032466946B8F1000F03A802D006F028F9C1
:100CC00001E006F03AF9C9E90001C9F808200AB0C4
:100CD000BDE8F0872472000010B500F039F8BDE8D7
:100CE000104000F02FB870477546FFF7DBFEAE46A8
:100CF00005006946534620F00700854618B020B528
:100D0000FFF77AFABDE820404FF000064FF00007E9
:100D10004FF000084FF0000BAC46ACE8C009ACE85F
:100D2000C009ACE8C009ACE8C00921F007018D4654
:100D3000704710B50446AFF300802046BDE8104070
:100D4000FFF745BA002801D000F06AB870470000EC
:100D500010B5012805D0002103A000F067F801209C
:100D600010BD09A1F8E7000053494752544D454DC5
:100D70003A204F7574206F662068656170206D653C
:100D80006D6F7279000000003A2048656170206D37
:100D9000656D6F727920636F72727570746564002F
:100DA0004FF0013C50F8042B51F8043B9A4221D1FA
:100DB000A2EB0C03934313EACC1317D150F8042B86
:100DC00051F8043B9A4215D1A2EB0C03934313EA6A
:100DD000CC130BD150F8042B51F8043B9A4209D1A3
:100DE000A2EB0C03934313EACC13DBD04FF00000CB
:100DF000704700BFD01A01BAB1FA81F101F01801B1
:100E000022FA01F0CB40DBB2C0B2C01AC1F120011E
:100E10002CFA01F3D11A914311EAC311E6D17047BC
:100E200001491820ABBEFEE72600020070B505465A
:100E30000C460A2000E06D1C00F011F835B128784E
:100E40000028F8D102E0641C00F009F814B1207801
:100E50000028F8D1BDE870400A20AFF3008008B543
:100E600069468DF800000320ABBE08BDFEE7000018
:100E7000704700002DE9F04F85B09B461746019062
:100E800002FB02F000220491009000BF0199039739
:100E9000C81B394489B21FFA80F8A1EB0800B1EBF6
:100EA0000809064618BF4FF0FF39002848BF4642E0
:100EB000049900248D1A47464FF0000A0292012837
:100EC0004FF00100A8BF8146B8B2A9B202460B4656
:100ED00003F0BAFA584604F0F9FC0AF1010A002CB2
:100EE0001FFA8AF00CBF34444F448642ECD2049877
:100EF000DDF808A000240AEB000500271FFA88F09F
:100F0000A9B202460B4603F09FFA584604F0DEFCF5
:100F10000137002CB8B20CBF3444C8448642EDD22D
:100F200001990024A1EB0A00514489B286B2881BC2
:100F3000B1EB0608824618BF4FF0FF38002848BFC3
:100F4000C0F1000ADDE90312374601EB0209002572
:100F500001284FF00100A8BF804600BFB8B21FFAB9
:100F600089F102460B4603F06FFA584604F0AEFCD6
:100F70000135002CA8B20CBF544447448245EDD241
:100F8000DDE903700024A0EB07090025B0B21FFAC9
:100F900089F102460B4603F057FA584604F096FCD6
:100FA0000135002CA8B20CBF544446448245EDD212
:100FB000029B07FB07F1581C00FB0011009A9142AD
:100FC00088BF013FBB420246FFF660AF05B0BDE8F7
:100FD000F08F0000012000F0E7B800004FF48060BF
:100FE00000F0E2B8022000F0DFB80000EFF310805C
:100FF00072B600BFFEE7000090F82110022923D14D
:101000000268116821F00E0111602F211368C4F2EB
:1010100002018A4240F20401C4F2020123F00103FA
:10102000136015DD3023C4F202039A421CD044231E
:10103000C4F202039A421BD05823C4F202039A421C
:101040001CD14FF4803321E00421816301207047DB
:101050000823C4F202039A420ED01C23C4F20203F6
:101060009A420BD1102311E04FF480730EE000BFC1
:101070004FF480530AE000BF012307E001F1680C40
:101080004FF08073624508BF4FF480130B6001215D
:1010900080F82110426B002180F8201022B180B529
:1010A00090470021BDE8804008467047B0B504462F
:1010B00000F0A2F9054640F20000C2F200000078FC
:1010C000611C18BF044400BF00F096F9401BA04209
:1010D000FAD3B0BD80B5B0F5806F0DD002282BD00B
:1010E000012807D140F60040C4F20100012100F0C0
:1010F0006FF988B380BD00BF40F60040C4F2010024
:101100004FF4806100F064F9002818BF80BD40F200
:101110005C20C2F20000007850B340F27000C2F2CE
:101120000000C1894FF6FE72013189B2914238BF89
:101130000A46C28180BD00BF40F25C20C2F20000BE
:10114000007818B340F27000C2F20000C189013982
:1011500038BF0021C18180BD46F2E112C0F6000215
:101160004FF47A700121BDE8804005F01FB800BF40
:1011700040F27000C2F2000090F82010013149B234
:101180006429A8BF642180F8201080BD40F270005F
:10119000C2F2000090F8201001390A0621EAE2713B
:1011A00080F8201080BD000040F21441C4F201011B
:1011B0000A68024214BF08607047FFF78BBF000047
:1011C0002DE9F04F82B00E68002E00F0FD8041F254
:1011D0000042C4F20102042340F2004E904208BFD4
:1011E00003234FF6FF7CC4F2010E00930024012379
:1011F000C1F2100C4FF0000A4FF0000944E000BFAC
:10120000012704F00C030F229A402BEA020207FA8E
:1012100003F34FEA9A051A4346F825204E6840F238
:101220000C45F202DEF8082054BF22EA080242EA26
:101230000802C4F20105CEF808202A68B30254BFA0
:1012400022EA080242EA08022A60B303DEF8042018
:1012500054BF22EA080242EA0802F303CEF804204F
:10126000DEF800204FF0010354BF22EA080242EAF0
:101270000802CEF800200E680AF1010A36FA0AF2D6
:1012800004F1040400F0A08003FA0AFB16EA0B083C
:10129000F1D04E68664511DC122E55D8DFE806F015
:1012A000340A444854545454545454545454545484
:1012B000544C5000D1F80C9046E000BF4FF6FF723E
:1012C000C1F2210296420FDC0022C1F211029642C5
:1012D0001AD00022C1F21202964215D00022C1F2A9
:1012E0002102964210D02FE00022C1F22202964243
:1012F0000AD00022C1F23102964205D00022C1F28A
:101300003202964220D100BF8A684AB1012A14BF36
:10131000C0F814B0C0F810B04FF0080914E000BFD6
:101320004FF0040910E000BFCA6802F108090BE0A1
:101330004FF0000908E000BFCA6802F1040903E0A9
:10134000CA6802F10C0900BF22460646B8F5807F44
:1013500024BF203A043637680F25954027EA050553
:1013600009FA02F22A433260CA79D2067FF583AFC6
:1013700041F21803C4F202031A68AEF57E7642F019
:1013800001021A601A6802F001020192019A2AF021
:10139000030256F802B040F60002C4F20102904285
:1013A00010D040F60042C4F2010290423FF428AF50
:1013B00041F20002C4F20102009F904208BF0227DE
:1013C0001FE700BF00271CE702B0BDE8F08F000058
:1013D0008068084018BF012070470000C26802EA18
:1013E0000103914341EA034101617047002A08BFAC
:1013F000090401617047000040F26020C2F2000061
:1014000000687047002804BF01207047F0B581B024
:10141000044690F83D0028B9002084F83C0020469E
:1014200000F0FEFB242084F83D002068016821F0D4
:1014300001010160016841F400410160016821F48B
:101440000041016000F0BAFE636848F2A16CC0F28E
:10145000010C40F60011C0F23D0163453CBF48F26B
:101460008041C0F21E01884202D2012001B0F0BDCD
:101470004DF68361C4F21B31A0FB01122168970C69
:10148000D1F804E04FF496762EF03F0545EA9245F8
:101490004D60774348F638160D6AC0F24106A7FB47
:1014A000067625F03F07634538BF960C721C3A4319
:1014B0000A62CA6948F2A0664CF6FF77C0F20106DC
:1014C000B34222EA07020BD801385B00B0FBF3F00D
:1014D00001306FF31F30042898BF04201BE000BFC9
:1014E000A768013857B119277B43B0FBF3F00130EF
:1014F0006FF31F3070B100F5804007E003EB43034A
:10150000B0FBF3F001306FF31F3018B100F500406D
:1015100001E000BF01201043C8610868D4E9072337
:1015200020F0C000104318430860886848F2FF327A
:1015300004F10C0790438CCF18431043A6698860D0
:10154000C86820F0FF0038433043C860086840F0A6
:101550000100086000202021206484F83D102063F1
:1015600084F83E0001B0F0BD2DE9F04F83B01E4677
:10157000924688460446FFF73FFF94F83D10202925
:1015800024D12168054600BF886980071AD5FFF776
:1015900033FF401B21681A28F6D388698007F3D5EA
:1015A00000202021206384F83D1084F83E00216C47
:1015B000022641F02001216484F83C00304603B04B
:1015C000BDE8F08F94F83C00012805D10226304692
:1015D00003B0BDE8F08F00BF4FF0010984F83C90E4
:1015E0000868C00703D1086840F001000860086877
:1015F000002720F400600860242084F83D000020CB
:10160000CFF6FF702764E06208F0FE08BAF1010F20
:1016100088BFD1464FF0A00A4FF0200B04E000BF76
:1016200001374F4500F09A800868002240F480702E
:10163000086020464FF001113346009502F07EFC11
:101640002168002856D1C1F81080FFF7D5FE216827
:101650004B694A6994F83D50A02D054605D013F01A
:10166000020008BF12F480601AD084F83DB04869C7
:101670000A68800742F400720A6047D46FF4806001
:10168000486100BF88698007CAD5FFF7B5FE401BD7
:1016900021681A28F6D388698007F3D54CE000BF8B
:1016A000B6B100BFFFF7A8FE401BB04288BF84F868
:1016B0003DA021684A69486994F83D30A02BD4D0F8
:1016C00012F0020208BF10F48060EBD0CDE700BF3B
:1016D000FFF792FE84F83DA021684A69486994F8B2
:1016E0003D30A02BC1D012F00202BED110F48060B8
:1016F000EED0BAE708680326C00544BF4FF4007077
:101700002064304603B0BDE8F08F00BF002602968B
:1017100048690290886902900298886901E000BFD8
:101720008069800720D5FFF767FE411B20681A29D2
:10173000F6D381698907F3D500202021206384F83E
:101740003D1084F83E00216C41F020012164012607
:1017500084F83C00304603B0BDE8F08F202084F8C8
:101760003D000020F3E700BF202084F83D0084F80E
:101770003C60304603B0BDE8F08F00002DE9F04F2B
:1017800085B004460020994616460F460490FFF7A0
:1017900033FE94F83D10202927D10546206800BF6C
:1017A000816989071CD5FFF727FE411B20681A298C
:1017B000F6D381698907F3D500202021206384F8BE
:1017C0003D1084F83E00206C04F13C0A40F02000FB
:1017D0002064022000218AF8001005B0BDE8F08FD7
:1017E000A2461AF83C1F012904D1022005B0BDE829
:1017F000F08F00BF01228AF800200368DDE90F188E
:101800000E9ADB0703D1036843F00103036003680A
:1018100023F400630360222084F83D00402084F814
:101820003E000020206462626185608D394620851B
:101830000020CFF6FF70E062204632464B46CDE9ED
:10184000008502F02FFA18B1012005B0BDE8F08F35
:10185000208D022810D0012824D0002838D1002063
:10186000039020684169039181690391039901689C
:1018700041F40071016037E02068016841F40061C3
:101880000160EFF3108072B6002003902068416978
:101890000391816903910399016821F480610160DA
:1018A00062B621E02068016821F480610160EFF3F5
:1018B000108072B60020039020684169039181690D
:1018C00003910399016841F40071016062B60BE075
:1018D0002068016841F48061016000210391416941
:1018E0000391806903900398208D002800F0CA803E
:1018F000042740F20C094BF2895BC0F20107C2F2E7
:101900000009C1F2F84B232617E000BF20464146EC
:101910002A4602F065FC002896D12068616A0069B9
:101920000870606A218D01306062481E2085618DDB
:1019300001396185010400F0A58080B2032865D8D3
:10194000022800F07F800128E0D02046394600229E
:101950004346009502F0F2FA00287FF475AF206844
:10196000016821F480610160EFF3108072B6206895
:10197000616A00690870606A218D01300139606216
:101980002185618D01396185D9F80010C908A1FB55
:101990000B12110A714304910499013904910499BD
:1019A000002900F07B8021684A6952071DD4049900
:1019B000013904910499002970D021684A695207BD
:1019C00013D40499013904910499002966D021683F
:1019D0004A69520709D404990139049104990029EC
:1019E0005CD021684A695207D6D50A6842F4007271
:1019F0000A6009690170606A218D01306062481EC9
:101A00002085608D0138608562B686E720464146B4
:101A10002A4602F0E5FB00287FF416AF2068616AD1
:101A200000690870606A2268411C208D616201387B
:101A30002085638D013B638553695B077FF57AAF32
:101A400010696DE72046394600224346009502F0B2
:101A500075FA00287FF4F8AEEFF3108072B62068B4
:101A6000616A026842F40072026000690870606A8C
:101A7000218D01306062481E2085608D01386085AF
:101A800062B64AE7202084F83D00002084F83E003A
:101A900000218AF8001005B0BDE8F08F0020202159
:101AA000206384F83D1084F83E00206C40F0200054
:101AB000206462B6012000218AF8001005B0BDE85C
:101AC000F08F00002DE9F04383B0994616460F468B
:101AD0000446FFF791FC94F83D10202924D10546D7
:101AE000206800BF816989071AD5FFF785FC411B73
:101AF00020681A29F6D381698907F3D500202021AF
:101B0000206384F83D1084F83E00216C41F02001F0
:101B1000216484F83C00022003B0BDE8F08300BFDC
:101B200094F83C10012903D1022003B0BDE8F083F2
:101B3000012284F83C200368DDE90B180A9ADB07D0
:101B400003D1036843F001030360036823F40063D7
:101B50000360212084F83D00402084F83E000020EE
:101B6000206462626185608D394620850020CFF651
:101B7000FF70E062204632464B46CDE9008502F018
:101B80001BF918B1012003B0BDE8F083208D98B98E
:101B9000204641462A4602F073F988B3206C042897
:101BA000F0D12068016841F400710160012003B0A8
:101BB000BDE8F0830004EBD0204641462A4602F0FF
:101BC00057FB0028EAD1616A2268084610F8013BF9
:101BD0001361238D6062581E2085678D013F6785E4
:101BE00057697F07E6D50704E4D048781061881C60
:101BF0006062981E2085618D01396185DAE700BF3A
:101C00002068016841F400710160202084F83D00E3
:101C1000002084F83E0084F83C0003B0BDE8F08367
:101C200010B586B045F200410068C4F20001002200
:101C30008842049202D006B010BD00BF41F21804E1
:101C4000C4F20204206840F008002060206800F020
:101C5000080001900198C0200290122003900320F8
:101C6000059001F5384002A9FFF7AAFA606840F430
:101C700000106060606800F400100190019806B0E8
:101C800010BD000040F2000040F26021C2F20000EE
:101C9000C2F2000100780A68104408607047000032
:101CA00080B542F20000C4F20200016841F0100168
:101CB0000160032000F08CF8002000F005F800F02F
:101CC00027F8002080BD000070B540F20006C2F287
:101CD000000640F20C013278C2F200014FF47A7330
:101CE0000968B3FBF2F20446B1FBF2F1084601F0D9
:101CF0005FF80F2C4FF0010508D838B94FF0FF30CE
:101D000021460022002500F037F87460284670BD97
:101D100082B041F21800C4F202000168022241F0D0
:101D200001010160016801F001010191019941681F
:101D300041F080514160406800F080500090009870
:101D40000420C4F20100016862F31A61016002B06C
:101D500070470000002848BF704700F01F010122B3
:101D600002FA01F11C2202EAD0004EF20012CEF279
:101D7000000281507047000010B54EF60C5CCEF2A8
:101D8000000CDCF80030C3F3022E8EF00704042CA4
:101D900028BF0424BEF103034FF0FF3E0EFA04F403
:101DA00038BF0023A14399400EFA03F39A4311432D
:101DB00000F00F0200F160430901043A03F56443A7
:101DC0006244002848BF02F10C03197010BD0000E6
:101DD0004EF60C51CEF200010A684FF6FF031A408E
:101DE00060F30A2242F0806040F0FD7008607047A6
:101DF0002020C4F20E2001210160704701280FD07D
:101E000002282DD0102808D141F20401C4F20201A9
:101E10000A6851F8040CC00134D40020704700BF98
:101E200041F20400C4F20200C16940F202320A40E9
:101E3000B2F5817F04BF4FF40040704701F4407158
:101E4000B1F5407F2AD0B1F5007F1CBF002070475C
:101E5000006A49F64041800701EAE070704700BF20
:101E600080B500F0BFF941F20401C4F20201096833
:101E70000222C1F3813102EB4101B0FBF1F0BDE878
:101E800080407047C2F3834015A3185CD2030DD481
:101E900040F60012C0F23D02504313E050F8040C2B
:101EA0004FF22441800301EAE07070470A6810A3F2
:101EB000C2F340429A5C41F20023C0F27A03B3FBC2
:101EC000F2F250430968490248BF70474AF6AB2115
:101ED0004000CAF6AA21A0FB01014808704700BFD4
:101EE00002030405060708090A0B0C0D0E0F10105B
:101EF000010200002DE9F04182B00446007841F271
:101F00001C06C007C4F202064AD030685FEAC00867
:101F100008D4306840F080503060306800F0805065
:101F20000190019847F20007C4F200073868C00525
:101F300012D4386840F480703860FFF75DFA0546C7
:101F40003868C00508D4FFF757FA401B6428F7D952
:101F5000032002B0BDE8F081706810F4407012D028
:101F6000616801F4407188420DD0706840F24042CF
:101F7000C4F24222012320F4407113600023C00701
:101F80001360716026D17068616820F44070084366
:101F9000B8F1000F706003D4306820F080503060DA
:101FA0002068810707D556F8181CA26821F4404123
:101FB000114346F8181CC00607D556F8180CE168FE
:101FC00020F48000084346F8180C002002B0BDE859
:101FD000F08100BFFFF710FA054641F2883700BFD5
:101FE00070688007CFD4FFF707FA401BB8424FF064
:101FF0000300F5D9EAE70000002804BF012070477C
:102000002DE9F04381B042F20008C4F20208044610
:10201000D8F800000D4600F0070088420CD2D8F82E
:10202000000020F007002843C8F80000D8F800009E
:1020300000F00700A8426CD1206841F20409810732
:10204000C4F2020917D5410705D5D9F8001041F4AB
:10205000E061C9F80010010705D5D9F8001041F476
:102060006051C9F80010D9F80010A26821F0F00101
:102070001143C9F80010C00742D1D8F8000000F0A1
:102080000700A8420CD9D8F8000020F00700284328
:10209000C8F80000D8F8000000F00700A84238D1C6
:1020A0002068410707D5D9F80010E26821F4E06103
:1020B0001143C9F80010000708D5D9F800002169BC
:1020C00020F4605040EAC100C9F80000D9F80020AF
:1020D00002F00C00082841F20020C0F27A0051D131
:1020E0004BF24E23C2F38341C0F60003595CD20386
:1020F0003CD440F60010C0F23D00484342E000BF2F
:10210000606802280AD001282AD159F8041C8903E2
:1021100008D4012001B0BDE8F08300BF59F8041CC9
:102120008901F6D5D9F8001021F003010843C9F858
:102130000000FFF761F9064641F28837D9F8000040
:10214000616800F00C00B0EB810F96D0FFF754F9F6
:10215000801BB842F2D9032001B0BDE8F08300BF74
:1021600059F8041C8907D4D5DCE700BFD9F8002052
:1021700047F65863C2F34042C0F600039A5C4843F6
:10218000B0FBF2F0D9F8001047F64062C1F303113A
:10219000C0F60002515C40F20C0220FA01F140F25C
:1021A0000400C2F200000068C2F200021160FFF7F2
:1021B0008BFD002001B0BDE8F083000040F20C0070
:1021C00041F20401C2F20000C4F202010068096891
:1021D00047F65062C1F30221C0F60002515CC840CC
:1021E0007047000040F20C0041F20401C2F200000E
:1021F000C4F202010068096847F65062C1F3C221C7
:10220000C0F60002515CC84070470000002804BFBF
:10221000012070472DE9F04182B00446007841F278
:102220000006C007C4F202060CD0706800F00C0073
:10223000042840F081803068800303D5606800285E
:1022400000F04E81207880071BD5706810F00C0FCD
:1022500009D0706800F00C00082840F08B8070688E
:10226000C00300F187803068800703D5206901280A
:1022700040F036813068616920F0F80040EAC10022
:1022800030602078000713D4207840072CD4E5690B
:10229000002D00F02081706800F00C00082840F04C
:1022A000AF80012D40F00C81012002B0BDE8F0812B
:1022B000A069002800F08C800020C4F24220012197
:1022C000C0F88014FFF798F8054600BF706A8007D1
:1022D00000F1BA80FFF790F8401B0228F6D90320DE
:1022E00002B0BDE8F08100BFF0695FEAC00808D421
:1022F000F06940F08050F061F06900F0805000908B
:10230000009847F20007C4F200073868C0054DD4B2
:10231000386840F480703860FFF76EF8054600BFFB
:102320003868C00542D4FFF767F8401B6428F7D926
:10233000032002B0BDE8F081706800F00C000828AE
:1023400003D17068C0033FF576AF6068002800F0E5
:102350000981B0F5A02F00F01D81B0F5803F00F09D
:102360001D81306820F480303060306820F4802097
:1023700017E100BF2069002840F20000C4F24220AB
:1023800000F08C8001210160FFF736F8054600BFA0
:10239000306880073FF56EAFFFF72EF8401B02282C
:1023A000F6D9032002B0BDE8F08100BFE068002844
:1023B00000F09A80052800F0B180012800F0B2807A
:1023C000306A20F001003062306A20F00400ACE096
:1023D0000020C4F242200021C0F88014FFF70CF85E
:1023E000054600BF706A80077FF54EAFFFF704F81F
:1023F000401B0228F6D9032002B0BDE8F08100BFDF
:102400000027C4F2422700203866FEF7F5FF022DB0
:1024100005460DD13068800140F1D680FEF7ECFF13
:10242000401B02284FF00300F4D902B0BDE8F08150
:10243000306880014FD5FEF7DFFF401B02284FF0C8
:102440000300F5D9F1E700BF40F20C00C2F2000032
:10245000006844F6D351C1F26201A0FB0101480AB1
:10246000019000BF00BF0198411E002801913FF478
:102470000BAF00BF0198411E002801913FF404AF4B
:1024800000BF0198411E002801913FF4FDAE00BF3E
:102490000198411E00280191E4D1F5E60021016078
:1024A000FEF7AAFF054600BF306880077FF5E9AE5A
:1024B000FEF7A2FF401B02284FF00300F4D9B4E757
:1024C0007068216A00F480328A4209D1616A00F49E
:1024D0007010884204D1002002B0BDE8F08100BF36
:1024E000012002B0BDE8F081306A20F001003062C6
:1024F000306A20F004003062FEF77EFF054641F2AC
:10250000883700BF306A800722D5FEF775FF401B71
:10251000B8424FF00300F5D987E700BF306A40F0BA
:1025200004003062306A40F001003062FEF764FF60
:10253000054641F2883700BF306A800708D4FEF7AD
:102540005BFF401BB842F7D9032002B0BDE8F08121
:10255000B8F1000F3FF59BAEF06920F08050F061BC
:1025600095E600BF306820F480303060306820F499
:1025700080203060FEF740FF054600BF30688003D2
:102580007FF560AEFEF738FF401B64284FF0030074
:10259000F4D94AE7306840F480203060306840F475
:1025A00080303060FEF728FF054600BF30688003AA
:1025B0003FF548AEFEF720FF401B6428F6D9032004
:1025C00002B0BDE8F08100BF206AB0F5803F05D1C0
:1025D0007168A26821F40031114371607168626A08
:1025E00021F4741111430843706001203866FEF72E
:1025F00003FF0446306880013FF56DAFFEF7FCFE37
:10260000001B02284FF00300F4D90EE72DE9F04734
:10261000064600284FF0010000F0AF800C4600296C
:1026200008BFBDE8F08730684168490700F1E280E3
:1026300091468169C26987698BB2B9B28B4203D175
:10264000190492B203E000BFC3690A0499B21143AE
:102650004BF2C532C9F2A212A1FB0223DA0A4FF4EF
:10266000616302FB131348F689059FB26F437D0D2A
:1026700065702D01A5EB5757A3EB870345F2801733
:10268000C0F20107B942A37036D344F20753CCF22B
:102690002E23A1FB03374AF6AB23C0F6AA23A2FBE5
:1026A000033505EB4503A2EBC3022270026A406AC0
:1026B0004FEA174880B240EA0240451A98BF4FF0EF
:1026C000FF35421C4AF68062CFF6FE7208FB021A02
:1026D00008BF0546FEF790FE074600BF3068416818
:1026E00089064DD4FEF788FEC01BB0F57A7FF5D978
:1026F0000120BDE8F08700BF2270B9F1000F3BD088
:1027000021784FF0CD0CA1F10A07FEB206FB0CF6C2
:102710006278F50ACBB205EB8505A7EB45070125E5
:10272000092BA2F10A03A07805EBD62688BF47EA59
:102730000611DFB207FB0CF7FE0A2170D1B206EBDF
:102740008606A3EB460305EBD727092988BF43EA92
:1027500007126270A0F10A02D3B203FB0CF3DF0A86
:10276000C1B207EB8707A2EB470205EBD323092988
:1027700088BF42EA0310A0700020BDE8F08700BFC8
:10278000416841F0100141604FEA1A4181611FFA2E
:102790008AF1C161416821F010014160FEF72CFE11
:1027A000074600BF30684068800609D4FEF724FE63
:1027B000C01BB0F57A7FF5D90120BDE8F08700BFD6
:1027C000681C11D05544FEF717FE07463068416873
:1027D000890613D4FEF710FEC01BB0F57A7F4FF0C8
:1027E0000100F3D9C9E700BF30464FF0FF3103F0D5
:1027F0001DFC08B30120BDE8F08700BF416841F02F
:1028000010014160290C0162A9B24162416821F0C6
:1028100010014160FEF7F0FD074600BF30684068D8
:10282000800609D4FEF7E8FDC01BB0F57A7F4FF0B3
:102830000100F3D9A1E700BF3046414603F08AFA10
:10284000B9F1000F7FF45CAF96E7000070B5002887
:1028500066D00446407C20B900202074204600F059
:102860006FF8022060742068416821F0080141601F
:10287000FEF7C2FD064600BF20684568FEF7BCFDB6
:10288000290705460ED4A81BB0F57A7FF4D9012597
:1028900004206074284670BDFEF7AEFD401BB0F505
:1028A0007A7FF4D8216848688006F5D5486846F6EE
:1028B0002C4240F0100048604868C4F2000220F04A
:1028C00007004860A06818B1536823F00103536003
:1028D000136823F46073184310606068421C06D1CB
:1028E00001200125FFF78AFA30B321680138C0F3CF
:1028F000034280B28A60C860486820F010004860D7
:10290000FEF77AFD054600BF20684068800609D4BE
:10291000FEF772FD401BB0F57A7FF5D9B7E700BF2F
:10292000012070BD40F201100025A4F80D00012027
:10293000E5736074284670BD04206074284670BD3D
:10294000006842F60001C4F20001884218BF7047D7
:1029500080B582B0FFF74CFA41F21C00C4F20200CD
:10296000016841F0006101600068012100F0006031
:102970000190019840F23C40C4F24220016002B054
:10298000BDE880407047000070470000B0B584B0DB
:10299000044600684168826802F04103012B09D1B6
:1029A00011F0400306D0216C204604B0BDE8B040D1
:1029B000084700BF930709D511F0800306D0616C6A
:1029C000204604B0BDE8B040084700BF12F0600FD9
:1029D00018BF11F0200301D104B0B0BD530618D5C3
:1029E00094F85130032B09D100210291C168029162
:1029F00080680290029804B0B0BD00BF636D43F0E0
:102A00000403636500230393C368039383680393FC
:102A1000039B92060CD5626D42F0010262650022B2
:102A2000019282680192026822F040020260019ADB
:102A3000626D002AD0D04268890722F0E00242602D
:102A40004FF0010284F8512020D0416846F29905E8
:102A500021F003014160E06CC0F6000538B1456328
:102A6000FEF7CAFA18B1606D40F040006065A06CD6
:102A70000028B1D04563FEF7BFFA0028ACD0606DE6
:102A800040F04000606504B0B0BD00BF204604B017
:102A9000BDE8B040FFF778BF70B538B10446406A72
:102AA00030B10020206104F1140007E0012070BD66
:102AB0006068B0F5827F03D004F11C000021016042
:102AC0000026A66294F8510020B9204684F8506090
:102AD00000F038F8022084F8510094E8071001F45F
:102AE0008271036802F4044223F040030360236907
:102AF00011440CF40062114403F0020263691144B2
:102B000003F00102A369E569114403F40072114462
:102B100005F03802256A114405F08002A56A1143C8
:102B200005F4005211430160042101EA13414160A0
:102B3000C16921F40061C1610120666584F851001A
:102B4000304670BD80B586B0014640F60000C4F244
:102B50000100096800F5205300229942049201D037
:102B600006B080BD41F21801C4F202010A6842F4C5
:102B700080520A600A6802F480520192019A0A683F
:102B800042F004020A60096801F004010191019910
:102B9000A0210291022103910321059102A9FEF7D0
:102BA0000FFB232002210022FFF7E6F82320FFF786
:102BB000D1F806B080BD00002DE9F04182B0044696
:102BC00090F85000012803D1022002B0BDE8F08146
:102BD00001201D4616460F4684F85000FEF70CFCF7
:102BE00094F8511001290DD18046002F4FF00100BB
:102BF00018BF002E0ED1002184F8501002B0BDE89D
:102C0000F08100BF0220002184F8501002B0BDE81E
:102C1000F08100BF0320002184F851006165276323
:102C2000A686E686A163A187E187A0682164B0F546
:102C3000004F2068616407D1016821F04001016004
:102C4000016841F4804101600168490603D40168CC
:102C500041F0400101606168731EE268B1FA81F1E0
:102C6000B3FA83F349095B09B2F5006F41EA030146
:102C70003AD131B137F8021BC1602763E08E0138C9
:102C8000E086E08E002869D0681C0CD11BE000BFF4
:102C9000216B31F8022BC2602163E08E0138E0869F
:102CA000E08E00285AD0206881688907F0D4FEF7AA
:102CB000A3FBA0EB0800A842F2D338E0FEF79CFB90
:102CC000E08E00284AD0206881688907F6D5216BFC
:102CD00031F8022BC2602163E08E0138E086E08E7D
:102CE0000028F0D13AE000BF39B139780173206B88
:102CF00001302063E08E0138E086E08E70B3681CFE
:102D00000BD11BE0216B09780173206B013020632C
:102D1000E08E0138E086E08E00B320688168890784
:102D2000F0D4FEF769FBA0EB0800A842F3D3032020
:102D300035E000BFFEF760FBE08E78B12068816867
:102D40008907F7D5216B09780173206B0130206367
:102D5000E08E0138E086E08E0028EFD12046802109
:102D60002A46434603F09EF928B1606D40F02000EA
:102D7000606520206065A06838B900200190206857
:102D8000C1680191806801900198606D30B10120A7
:102D9000002184F8501002B0BDE8F081002001212C
:102DA00084F85110002184F8501002B0BDE8F08181
:102DB000411E0020B0EB116F1CBF012070474EF286
:102DC0001002CEF2000251604EF62351CEF2000105
:102DD000F0230B700721906011607047704700006E
:102DE0007047000090F83C20012A4FF0020236D0D4
:102DF00010B580F83D200268D2F804E0D2F808C08F
:102E00000C682EF07003234340F2FF74C4F20004F8
:102E1000A24253600ADCB2F1804F13D040F200436B
:102E2000C4F200039A420DD011E000BF42F6004305
:102E3000C4F201039A4205D040F60003C4F2000335
:102E40009A4204D149682CF0800319439160012112
:102E5000002280F83D1080F83C20BDE8104010466C
:102E600070470000002804BF0120704710B50446D9
:102E700090F83D0028B9002084F83C00204600F07E
:102E800067F8022084F83D00206840F2FF73026872
:102E9000C4F2000342F6004C9842C4F2010C15DC67
:102EA000B0F1804F1AD040F20041C4F200018842D4
:102EB00014D0984218DCB0F1804F1DD040F2004190
:102EC000C4F20001884217D01AE000BF604505D067
:102ED00040F60001C4F200018842EAD1A16822F064
:102EE00070020A439842E6DD604505D040F60001D5
:102EF000C4F20001884203D1216922F440720A43DE
:102F0000A36922F08001D4F804E0E2681943604527
:102F10000160C262C0F828E002D16169CCF83010CB
:102F200001214161002084F8461084F83E1084F8A5
:102F30003F1084F8401084F8411084F8421084F85F
:102F4000431084F8441084F8451084F83D1010BDF7
:102F500080B586B000680021B0F1804F059139D06E
:102F600040F20041C4F2000188424BD042F60041D9
:102F7000C4F20101884252D141F21800C4F20200A9
:102F8000016841F400610160016801F40061019190
:102F90000199016841F004010160006802A900F094
:102FA0000400019001984FF480700290002003907B
:102FB0000120049040F60000C4F20100FEF700F981
:102FC0001B2002210022FEF7D7FE1B20FEF7C2FEC7
:102FD00006B080BD41F21800C4F202004168002230
:102FE00041F0010141604068022100F001000190C0
:102FF00001981C20FEF7C0FE1C2006B0BDE88040F2
:10300000FEF7A8BE41F21800C4F20200416841F088
:1030100002014160406800F002000190019806B092
:1030200080BD000090F83D1001291CBF01207047B1
:10303000022180F83D10006840F2FF72C168C4F2BE
:103040000002904241F00101C16009DCB0F1804F03
:1030500012D040F20041C4F2000188420CD012E0CC
:1030600042F60041C4F20101884205D040F6000159
:10307000C4F20001884206D1816801F007010629E7
:1030800004BF00207047016841F001010160002089
:10309000704700000146006841F21113C26822F037
:1030A0000102C260026A1A4204D00122002081F8A3
:1030B0003D207047026A40F244431A42F5D102684B
:1030C00022F0010202600122002081F83D207047B9
:1030D00090F83C20012A4FF0020200F0C58080B534
:1030E00080F83D20D0F800C04FF67772DCF8083049
:1030F00023EA0202CCF808200B684F2B28DC1F2B98
:1031000044DD202B45D0302B43D0402B40F0AE8007
:10311000D1F804E0C968DCF82030DCF8202022F087
:103120000102CCF82020DCF8182022F0F00242EA5C
:10313000011123F00A0242EA0E02CCF81810CCF872
:103140002020DCF8081041F0470121F0300180E038
:103150006F2B27DDB3F5005F48D0B3F5805F7AD0E1
:10316000702B40F08380D1E901E3C968DCF80820C6
:1031700043EA0E0322F47F4243EA01211143CCF8D3
:103180000810DCF8081041F0770162E00BB1102B59
:103190006CD1DCF8081021F07001194341F00701EF
:1031A00057E000BF502B35D0602B5FD1D1F804E041
:1031B000C968DCF82030DCF8202022F01002CCF8BE
:1031C0002020DCF8182022F4704242EA013123F07A
:1031D000A00242EA0E12CCF81810CCF82020DCF83D
:1031E000081041F0670121F0100132E0D1E901E35C
:1031F000C968DCF8082043EA0E0322F47F4243EA60
:1032000001211143CCF80810DCF8081041F480418A
:103210001FE000BFD1F804E0C968DCF82030DCF81A
:10322000202022F00102CCF82020DCF8182022F027
:10323000F00242EA011123F00A0242EA0E02CCF83F
:103240001810CCF82020DCF8081041F0570121F0CC
:103250002001CCF808100022012180F83D10002147
:1032600080F83C10BDE88040104670470122F3E72B
:1032700070B5044642F62040C4F201002168A0F176
:103280002002914200D070BD217F0129FBD140F284
:103290009805C2F20005E968002918BF70BD40F228
:1032A0000901C2F200010A78022A13D0012A21D1B1
:1032B00002220A70016821F00A010160016841F0F0
:1032C0000201016000214160204600F0CDFC286130
:1032D00070BD00BF032008702046002100F0C4FC30
:1032E00068612068016A21F00A010162016A0162D5
:1032F00070BD00BF01260E702046002100F0B4FC16
:1033000028612869013004F089FB014642F200403F
:10331000C4F6741004F058FA68606869013004F06B
:103320007DFB29690446481C04F078FB01462046D1
:1033300004F04AFAA860EE6070BD000090F83C30DE
:10334000012B04BF022070474FEAB202032A23D8A0
:10335000F0B5DFE802F00327476500BF0368D1E955
:1033600000C5D1F80CE01C6A1A6A40F2FF7722F01F
:1033700001021A621A4652F8186FC4F20007BB42E3
:1033800072DCB3F1804F7BD040F20047C4F20007FB
:10339000BB4275D090E000BF0121002280F83C20A4
:1033A000084670470368D1E900E6D1E902C11C6A0A
:1033B0001A6A360222F010021A621A4652F8185F90
:1033C0004FF2FF07BE4325F4734561F30F3624F037
:1033D000A0040EF00A0746EA050144EA0717116047
:1033E0001F623AE00768D1E900C5D1E902313C6AC1
:1033F0003A6A61F3071522F480723A623A4652F84B
:103400001C6F26F0F30645EA06014FEA5C0666F3F8
:10341000492411603C62116821F00C01116040E008
:103420000368D1E900E6D1E902C11C6A1A6A3602D2
:1034300022F480521A621A4652F81C5F4FF2FF07BC
:10344000BE4325F4734561F30F364FEA5E0746EA43
:10345000050167F34D3411601C6211684FEA0C23BB
:1034600021F4406111601CE042F60047C4F20107FC
:10347000BB4205D040F60007C4F20007BB421BD197
:1034800026F00306354324F00A070CF00A066EF313
:10349000071537449D611F629F6927F00C079F61E4
:1034A0008B681168194311600021BDE8F0400022CB
:1034B00080F83C200846704746F00105E3E700002D
:1034C000002804BF0120704710B5044690F83D0065
:1034D00028B9002084F83C00204600F067F802205C
:1034E00084F83D00206840F2FF730268C4F20003D4
:1034F00042F6004C9842C4F2010C15DCB0F1804F4A
:103500001AD040F20041C4F20001884214D098421F
:1035100018DCB0F1804F1DD040F20041C4F2000130
:10352000884217D01AE000BF604505D040F6000180
:10353000C4F200018842EAD1A16822F070020A4375
:103540009842E6DD604505D040F60001C4F2000176
:10355000884203D1216922F440720A43A36922F010
:103560008001D4F804E0E268194360450160C2625A
:10357000C0F828E002D16169CCF830100121416126
:10358000002084F8461084F83E1084F83F1084F838
:10359000401084F8411084F8421084F8431084F8F5
:1035A000441084F8451084F83D1010BD70470000A9
:1035B00061B1082916D0042919BF00F1410200F1B8
:1035C000450300F13F0200F143030FE090F83E2075
:1035D00090F84230012A4FF0010208BF012B1DD0A4
:1035E0001046704700F1400200F1440312781B7846
:1035F000012A4FF0010208BF012BF1D10222082954
:1036000018D0042922D180F83F2080F843204FEAC7
:10361000B103032B4FF00102E2D821E0022280F82F
:103620003E2080F842204FEAB103032B4FF0010205
:10363000D6D815E080F8402080F844204FEAB10346
:10364000032B4FF00102CBD80AE000BF80F84120E5
:1036500080F845204FEAB103032B4FF00102BFD899
:103660004BF2602C0068C0F6000C5CF823C0C36805
:1036700001F01F0143EA0C03C360036A02FA01F17F
:1036800023EA01020262026A114340F2FF72C4F2AD
:1036900000029042016209DCB0F1804F12D040F28A
:1036A0000041C4F2000188420CD010E042F6004113
:1036B000C4F20101884205D040F60001C4F20001C5
:1036C000884204D1816801F00701062903D001680E
:1036D00041F00101016000221046704710B50168F9
:1036E00004460869800744BFC8685FEA807039D41F
:1036F0000869400744BFC8685FEA40703ED4086963
:10370000000744BFC8685FEA007045D40869C00676
:1037100044BFC8685FEAC0604AD40869C0071CBFDC
:10372000C8685FEAC07051D10869000644BFC86824
:103730005FEA006052D40869400644BFC8685FEA87
:10374000406053D40869800646BFC8685FEA80605D
:1037500010BD6FF0200220460A61BDE81040FFF75F
:103760003FBB00BF6FF0020008610120207788692D
:10377000800743D02046FFF77BFD45E06FF0040053
:10378000086102202077886910F4407F40D02046ED
:10379000FFF76EFD42E000BF6FF0080008610420F3
:1037A0002077C86980073DD02046FFF761FD3FE0E4
:1037B0006FF01000086108202077C86910F4407F7E
:1037C0003AD02046FFF754FD3CE000BF6FF0010007
:1037D0000861204600F024FA2168A5E76FF0800018
:1037E00008612046FFF7FAFA2168A4E76FF040006D
:1037F0000861204600F052FA2168A3E7204600F055
:1038000025F8204600F09CF92168002020776FE71A
:10381000204600F01BF8204600F092F921680020B5
:1038200020776CE7204600F011F8204600F088F978
:1038300021680020207769E7204600F007F820463D
:1038400000F07EF921680020207766E770470000CD
:1038500090F83C30012B04BF022070474FEAB202BF
:10386000032A3DD82DE9F043DFE802F002407CB6A0
:10387000036842F600461D6A1A6AC4F2010622F085
:1038800001021A621A465C6852F818CFB3428E6879
:10389000D1F800E025F0020545EA06050CD1CE6816
:1038A000D1E9057824F4407425F00C0526F00406CF
:1038B0003C43354344EA08042CF0730747EA0E07FB
:1038C0005C609F614F6809695F631D629F6947F093
:1038D00008079F619F6927F004079F61ACE000BF64
:1038E0000121002280F83C2008467047036842F618
:1038F00000461D6A1A6AC4F2010622F010021A621A
:103900001A46D3F804C052F8184FB3428E68D1F863
:1039100000E025F0200545EA06150FD1CE68D1E973
:1039200005986FF0400725F0C00507EA06163543F5
:103930002CF4406748EA090647EA860C24F4E6447A
:1039400044EA0E27C3F804C09F614F6809699F636A
:103950001D629F6947F400679F619F6927F4806734
:103960009F6168E0036842F600461D6A1A6AC4F265
:10397000010622F480721A621A46D3F804C052F883
:103980001CEFB3428E680C6825F4007545EA0625E5
:103990000FD1CE68D1E90598360240F2FF4725F4F1
:1039A0004065BE4335432CF4405748EA090647EAD0
:1039B000061C2EF073072743C3F804C0DF614F686D
:1039C0000969DF631D62DF6947F00807DF61DF69AE
:1039D00027F00407DF612FE0036842F60047D3F8C1
:1039E00020C01A6AC4F2010722F480521A621A46F1
:1039F0005C6852F81C5FD1F800E08E68BB4204D1CD
:103A00004F6924F4804444EA87142CF4005747EAB1
:103A1000063725F4E64646EA0E265C60DE614E680F
:103A200009691E641F62DF6947F40067DF61DF69AF
:103A300027F48067DF6109021368194311600021D0
:103A4000BDE8F043002280F83C20084670470000A3
:103A5000002804BF0120704710B5044690F83D00CF
:103A600028B9002084F83C00204600F067F80220C6
:103A700084F83D00206840F2FF730268C4F200033E
:103A800042F6004C9842C4F2010C15DCB0F1804FB4
:103A90001AD040F20041C4F20001884214D098428A
:103AA00018DCB0F1804F1DD040F20041C4F200019B
:103AB000884217D01AE000BF604505D040F60001EB
:103AC000C4F200018842EAD1A16822F070020A43E0
:103AD0009842E6DD604505D040F60001C4F20001E1
:103AE000884203D1216922F440720A43A36922F07B
:103AF0008001D4F804E0E268194360450160C262C5
:103B0000C0F828E002D16169CCF830100121416190
:103B1000002084F8461084F83E1084F83F1084F8A2
:103B2000401084F8411084F8421084F8431084F85F
:103B3000441084F8451084F83D1010BD7047000013
:103B40007047000041B1082910D0042914BF00F1CA
:103B5000410200F13F020BE090F83E20012A1CBF19
:103B600001207047022280F83E2013E000F140025D
:103B70001278012A1CBF012070470222082907D0B1
:103B8000042914BF80F8412080F83F2002E000BFE4
:103B900080F84020006801F01F010122036A8A407A
:103BA00023EA02010162036A42F64441C4F20101C0
:103BB0001A43A1F14403984202620FD040F2FF7110
:103BC000C4F20001884213DCB0F1804F1CD040F2F7
:103BD0000041C4F20001884216D01AE00A6842F49B
:103BE00000420A6040F2FF71C4F200018842EBDD3E
:103BF00042F60041C4F20101884205D040F60001BE
:103C0000C4F20001884204D1816801F0070106294D
:103C100003D0016841F001010160002070470000FD
:103C20000068B0F1804F01D0704700BF40F208003B
:103C3000C2F20000017819B100210170704700BF85
:103C400010B540F29804C2F20004206A8047207840
:103C50000028BDE8104008BF704740F2CC10C2F207
:103C60000000FFF717BA00004FEAB101032984BF33
:103C700000207047DFE801F0020E060A00683430C9
:103C80000068704700683C3000687047006840304A
:103C9000006870470068383000687047704700005F
:103CA000FEE700002DE9F04782B0044600689A461E
:103CB0000B9D0A9E0368914643F48062026002688D
:103CC0000F4642F48071016020464FF0011100223E
:103CD0003346009500F032F950B120680068C00505
:103CE00044BF4FF400702064032002B0BDE8F087A9
:103CF00040F202082068C0F2010807F0FE070761E1
:103D00002046414632462B4600F0FEF920B1012004
:103D100002B0BDE8F08700BF0020019020682A466D
:103D2000416901918069314601900198204600F077
:103D30009FFAB0B92068BAF1010F09D04FEA1921F2
:103D40000161204631462A4600F092FA48B92068BF
:103D50005FFA89F10161204631462A4600F088FA6F
:103D600060B1206C0428D2D12068016841F4007150
:103D70000160012002B0BDE8F08700BF206800228A
:103D80000168334641F48071016020464FF0011113
:103D9000009500F0D3F800289FD147F0010C276868
:103DA0002046414632462B46C7F810C002B0BDE857
:103DB000F04700F0A9B900002DE9F04383B00446B4
:103DC00000680D4601680A9F0B9E41F48071994678
:103DD0009046016020464FF0011100223B460096BC
:103DE00000F0ACF850B120680068C00544BF4FF443
:103DF00000702064032003B0BDE8F083206805F064
:103E0000FE0101610221C0F2010120463A4633461B
:103E100000F07AF920B1012003B0BDE8F08300BFC3
:103E2000002002902068324641690291806939463B
:103E300002900298204600F01BFA58B1206C04282A
:103E4000E9D12068016841F400710160012003B0EC
:103E5000BDE8F0832068B9F1010F0AD04FEA1821BC
:103E6000016120463946324600F002FA0028E5D1C9
:103E700020685FFA88F10161002003B0BDE8F0839B
:103E800070B50368044653F8140F400711D40E466A
:103E9000481C29D086BB00BF1868400527D4FDF711
:103EA000ABFA236853F8140F400737D5186840075A
:103EB000F2D5002070BD00BF18684007F9D418681B
:103EC000400514D418684007F3D4186840050ED490
:103ED00018684007EDD41868400508D418684007F2
:103EE0004FF0000048BF70BD18684005E4D56FF47E
:103EF00080601860042012E0154603E053F8140FA8
:103F00004007D6D418684005F1D4FDF775FA401B78
:103F10002368B042F2D958694007EFD4202000212D
:103F20002022216384F83D2084F83E10226C104347
:103F30002064012084F83C1070BD00002DE9F041A0
:103F4000054600681E46144601F47F0201338FB215
:103F500042D0DDF81880B2F5803F40F0878040699C
:103F60003840C01BB0FA80F04009A04240F0C88041
:103F70004EB924E040693840C01BB0FA80F04009D7
:103F8000A04240F0BD80FDF737FAA0EB0801286899
:103F9000B142EFD941693940C91BB1FA81F14909F0
:103FA000A142E7D19BE000BF40693840C01BB0FA96
:103FB00080F04009A0424FF0000040F0A280FDF7E1
:103FC0001BFA286841693940C91BB1FA81F14909D6
:103FD000A142E9D183E000BFB2F5803F24D100BF08
:103FE00041693940C91BB1FA81F14909A14240F048
:103FF000878041693940C91BB1FA81F14909A14261
:1040000040F07E8041693940C91BB1FA81F149090C
:10401000A14275D141693940C91BB1FA81F1490901
:10402000A142DDD06CE000BF81693940C91BB1FA03
:1040300081F14909A14263D181693940C91BB1FAB3
:1040400081F14909A1425BD181693940C91BB1FAAB
:1040500081F14909A14253D181693940C91BB1FAA3
:1040600081F14909A142DFD04AE000BF80693840B0
:10407000C01BB0FA80F04009A04241D146B923E00C
:1040800080693840C01BB0FA80F04009A04237D1A7
:10409000FDF7B2F9A0EB08012868B142F0D98169B7
:1040A0003940C91BB1FA81F14909A142E8D116E0B2
:1040B00080693840C01BB0FA80F04009A0424FF040
:1040C000000018BFBDE8F081FDF796F92868816906
:1040D0003940C91BB1FA81F14909A142E8D1002058
:1040E0002021286385F83D1085F83E00296C41F0B9
:1040F0002001296485F83C000120BDE8F08100BF63
:104100000020BDE8F0810000F0B581B004460068F1
:104110001D4643698FB203EA0701B94202D100206C
:1041200001B0F0BD4169164601323FD049053FD488
:10413000CEB100BFFDF760F9411B2068B14203D941
:1041400041693940B94215D141693940B942E6D097
:1041500041694905EED52BE041693940B942DED0CD
:104160004169490524D4FDF747F920684169394080
:10417000B942F1D0202023E041693940B942CED084
:104180004169490514D441693940B942C7D04169F0
:1041900049050DD441693940B942C0D0416949054A
:1041A00006D441693940B942B9D041694905E3D5DE
:1041B000016841F4007101606FF480614161042085
:1041C00000212022216384F83D2084F83E10226CD7
:1041D0001043206484F83C10012001B0F0BD0000C1
:1041E00070B504460068154650F8143F5A063DD491
:1041F0000E4629B926E000BF50F8141F490635D4F1
:104200000168C90621D4FDF7F7F8411B2068B142C7
:10421000F2D941694906EFD400202021206384F8B7
:104220003D1084F83E00206C40F0200018E000BFF4
:10423000FDF7E2F8206850F8141F4906ECD5016834
:10424000490613D40168C906F2D56FF01001016068
:1042500000202021206384F83D1084F83E00206C6B
:104260002064002084F83C00012070BD002070BD57
:1042700070B50368044653F8140F000611D40E46B7
:10428000481C29D086BB00BF1868400527D4FDF71D
:10429000B3F8236853F8140F000637D518680006E2
:1042A000F2D5002070BD00BF18680006F9D4186868
:1042B000400514D418680006F3D4186840050ED4DD
:1042C00018680006EDD41868400508D41868000680
:1042D0004FF0000048BF70BD18684005E4D56FF48A
:1042E00080601860042012E0154603E053F8140FB4
:1042F0000006D6D418684005F1D4FDF77DF8401BC0
:104300002368B042F2D958690006EFD4202000217A
:104310002022216384F83D2084F83E10226C104353
:104320002064012084F83C1070BD00002DE9F041AC
:1043300086B00B4640F2BC07044601600271C2F22F
:104340000007002551001846032202233D807D60AE
:104350000226FDF709F918B1284606B0BDE8F0813C
:1043600080212068ADF812100DF112014FF47A7817
:104370008DE842018021002201230125FDF7A2FBE7
:104380000120FCF793FE0520C5F200004FF07A51A2
:10439000C7E9000150212068ADF8141005A9CDE946
:1043A0000016802105220123CDF80880FDF78AFB45
:1043B00049F609712068ADF816100DF11601CDE926
:1043C0000016802100220123CDF80880FDF77AFB3A
:1043D000284606B0BDE8F08180B584B000680221AF
:1043E0000DF10E024FF47A7CCDE9002180210222EA
:1043F0000123CDF808C0FDF7C1F9BDF80E006FF03C
:10440000030100BA01EA504004B080BD80B584B019
:10441000006802210DF10E024FF47A7CCDE90021F3
:10442000802104220123CDF808C0FDF7A7F9BDF8CB
:104430000E0040F2BC01C2F2000100BA0988000C73
:10444000B0FBF1F004B080BD2DE9F04383B040F63D
:104450000004C4F201041646894607462046082196
:1044600000229846FCF7C2FF2A208DF80100204662
:1044700010210022FCF7BAFF40F22C15C2F2000511
:104480000DF10101284601226423FEF795FB204629
:1044900010210122FCF7AAFF204608210122FCF787
:1044A000A5FF380A8DF80200204610210022FCF7F3
:1044B0009DFF0DF10201284601226423FEF77CFBDB
:1044C000204610210122FCF791FF204610210022F6
:1044D0008DF80370FCF78AFF0DF1030128460122D5
:1044E0006423FEF769FB204610210122FCF77EFFC2
:1044F000300A8DF80400204610210022FCF776FFD8
:1045000001A9284601226423FEF756FB204610210C
:104510000122FCF76BFF2046102100228DF8056078
:10452000FCF764FF0DF10501284601226423FEF724
:1045300043FB204610210122FCF758FF20460821AA
:104540000022FCF753FF2B208DF806002046102197
:104550000022FCF74BFF0DF10601284601226423DF
:10456000FEF72AFB204610210122FCF73FFF2046E0
:1045700008210122FCF73AFF09F12206300A8DF8E2
:104580000700204610210022FCF730FF0DF1070143
:10459000284601226423FEF70FFB2046102101224A
:1045A000FCF724FF2046102100228DF80860FCF75C
:1045B0001DFF02A9284601226423FEF7FDFA2046CA
:1045C00010210122FCF712FF08F12206300A8DF8B3
:1045D0000900204610210022FCF708FF0DF1090117
:1045E000284601226423FEF7E7FA20461021012223
:1045F000FCF7FCFE2046102100228DF80A60FCF733
:10460000F5FE0DF10A01284601226423FEF7D4FAD3
:10461000204610210122FCF7E9FE20460821002255
:10462000FCF7E4FE2C208DF80B0020461021002220
:10463000FCF7DCFE0DF10B01284601226423FEF796
:10464000BBFA204610210122FCF7D0FE20460821AB
:104650000122FCF7CBFE03B0BDE8F0832DE9F04F5B
:1046600083B005460C46111AB2EB050B18BF4FF08C
:10467000FF3B00290F4648BF4F420129A3EB04002E
:104680004FF00106A8BFB346191B18BF4FF0FF310A
:104690000028029044BF434202930128B8BF0E464F
:1046A00002984FF0000A4FF000094FF000088742CF
:1046B00088BF3846019000BFA8B2A1B202460B469F
:1046C000FFF7C2FE0C9801F001F90299019B09EB7A
:1046D00007005144B0EB030908F10108D4BF81463B
:1046E0005D44B1EB030A1FFA88F0D4BF8A46344414
:1046F0008342E1D203B0BDE8F08F000010B514464C
:1047000002460B46FFF7A0FE2046BDE8104001F030
:10471000DDB800002DE9F04F87B00192DDE91028E7
:104720008B4657181946CDE902239A1ABBB29A4212
:10473000069711460492009305902CDB0199059A87
:10474000881AB1EB020918BF4FF0FF39002807465D
:1047500048BF47420128A8BF4FF00109069D00BF8E
:10476000DDF814A0002600241FFA8AF0A9B2024640
:104770000B46FFF769FE404601F0A8F80134002E11
:10478000A0B20CBF3E44CA448742EDD20135049921
:10479000A8B28142E4DA029898B302990598019A86
:1047A0000844511A89B21FFA80F9A1EB0900B1EB54
:1047B000090A18BF4FF0FF3A0028074648BF474292
:1047C0000128A8BF4FF0010A00254C46002600BF73
:1047D000A0B21FFA8BF102460B46FFF735FE4046AA
:1047E00001F074F80136002DB0B20CBF3D445444C2
:1047F0008742EDD20BF1010B06991FFA8BF0814233
:10480000E2D8029A0599049811440591451C039930
:10481000A8B288420198A0EB020006902FD8069813
:1048200081B2059884B2081BB1EB040B18BF4FF09E
:10483000FF3B0028074648BF47420128A8BF4FF06A
:10484000010B00BF0026A2464FF000091FFA8AF0B4
:10485000A9B202460B46FFF7F7FD404601F036F8D5
:1048600009F10109002E1FFA89F00CBF3E44DA4419
:104870008742EBD201350399A8B28842E2D9059864
:10488000009C1FFA80F902982146C6B2484632467B
:104890004346FCF7EFFA0698214687B2384632467F
:1048A0004346FCF7E7FA0498324685B24846294663
:1048B0004346FCF7DFFA384629463246434607B0FE
:1048C000BDE8F04FFCF7D6BA2DE9F0470D46074694
:1048D000501E591E9A469146089C82B28BB23846A9
:1048E0002946FFF7B1FDA9EB07084046FBF796FC08
:1048F000B945064623D9F94360BA18F00303494481
:1049000032460ED0012B22F8020B05D1013789B2B5
:10491000032909D213E000BF022B708038D1321D69
:10492000023789B203290AD3A2F108010437BAB2C7
:1049300021F8080F4A4548808880C880F6D340F6A1
:104940000009C4F20109484610210022FCF74EFD7F
:10495000554512D24FEA480040F22C1487B2C2F2F9
:10496000000400BF204631463A464FF47A73FEF702
:1049700023F90135A8B25045F4D34846102101224D
:10498000FCF734FD3046BDE8F047FBF776BC00BFCE
:10499000B21D0337B08089B20329C5D2CFE700002A
:1049A0002DE9F04F81B040F60004C4F20104204626
:1049B0000421002204264FF0000AFCF717FD1E20F8
:1049C000FCF774FB2046042101224FF00108FCF79C
:1049D0000DFD6420FCF76AFB6420FCF767FB2046B2
:1049E00008210022FCF702FD11208DF8030020466B
:1049F00010210022FCF7FAFC40F22C15C2F200054F
:104A00000DF10301284601226423FEF7D5F8204664
:104A100010210122FCF7EAFC204608210122FCF7C4
:104A2000E5FC204608210022FCF7E0FC36208DF84A
:104A30000300204610210022FCF7D8FC0DF10301F1
:104A4000284601226423FEF7B7F8204610210122F0
:104A5000FCF7CCFC204608210122FCF7C7FC7020A3
:104A60008DF80300204610210022FCF7BFFC0DF159
:104A70000301284601226423FEF79EF820461021F8
:104A80000122FCF7B3FC204608210022FCF7AEFC13
:104A90003A208DF80300204610210022FCF7A6FCE6
:104AA0000DF10301284601226423FEF785F8204614
:104AB00010210122FCF79AFC204608210122FCF774
:104AC00095FC4FF0050B2046102100228DF803B015
:104AD000FCF78CFC0DF10301284601226423FEF74C
:104AE0006BF8204610210122FCF780FC20460821AB
:104AF0000022FCF77BFCB2208DF803002046102139
:104B00000022FCF773FC0DF1030128460122642307
:104B1000FEF752F8204610210122FCF767FC2046E0
:104B200008210122FCF762FC0C27204610210022FC
:104B30008DF80370FCF75AFC0DF1030128460122A1
:104B40006423FEF739F8204610210122FCF74EFCC1
:104B50002046102100228DF80370FCF747FC0DF170
:104B60000301284601226423FEF726F8204610217F
:104B70000122FCF73BFC2046102100228DF803A007
:104B8000FCF734FC0DF10301284601226423FEF7F3
:104B900013F8204610210122FCF728FC4FF03309BE
:104BA0002046102100228DF80390FCF71FFC0DF128
:104BB0000301284601226423FDF7FEFF2046102151
:104BC0000122FCF713FC2046102100228DF80390EF
:104BD000FCF70CFC0DF10301284601226423FDF7CC
:104BE000EBFF204610210122FCF700FC20460821A3
:104BF0000022FCF7FBFBB7208DF8030020461021B4
:104C00000022FCF7F3FB0DF1030128460122642387
:104C1000FDF7D2FF204610210122FCF7E7FB2046DA
:104C200008210122FCF7E2FB352720461021002253
:104C30008DF80370FCF7DAFB0DF103012846012221
:104C40006423FDF7B9FF204610210122FCF7CEFBBB
:104C5000204608210022FCF7C9FBBB208DF8030089
:104C6000204610210022FCF7C1FB0DF1030128466C
:104C700001226423FDF7A0FF204610210122FCF74A
:104C8000B5FB204608210122FCF7B0FB204610218D
:104C900000228DF80370FCF7A9FB0DF103012846F3
:104CA00001226423FDF788FF204610210122FCF732
:104CB0009DFB204608210022FCF798FBC0208DF8C0
:104CC0000300204610210022FCF790FB0DF10301A8
:104CD000284601226423FDF76FFF204610210122A0
:104CE000FCF784FB204608210122FCF77FFB2C20E7
:104CF0008DF80300204610210022FCF777FB0DF110
:104D00000301284601226423FDF756FF20461021A7
:104D10000122FCF76BFB204608210022FCF766FB12
:104D2000C2208DF80300204610210022FCF75EFB14
:104D30000DF10301284601226423FDF73DFF2046C3
:104D400010210122FCF752FB204608210122FCF72A
:104D50004DFB2046102100228DF80380FCF746FB16
:104D60000DF10301284601226423FDF725FF2046AB
:104D700010210122FCF73AFB204608210022FCF713
:104D800035FBC3208DF80300204610210022FCF7DC
:104D90002DFB0DF10301284601226423FDF70CFFD2
:104DA000204610210122FCF721FB20460821012288
:104DB000FCF71CFB13208DF8030020461021002275
:104DC000FCF714FB0DF10301284601226423FDF7D3
:104DD000F3FE204610210122FCF708FB20460821A3
:104DE0000022FCF703FBC4208DF8030020461021AD
:104DF0000022FCF7FBFA0DF103012846012264238F
:104E0000FDF7DAFE204610210122FCF7EFFA2046DA
:104E100008210122FCF7EAFA20208DF80300204641
:104E200010210022FCF7E2FA0DF1030128460122CD
:104E30006423FDF7C1FE204610210122FCF7D6FABB
:104E4000204608210022FCF7D1FAC6208DF8030085
:104E5000204610210022FCF7C9FA0DF10301284673
:104E600001226423FDF7A8FE204610210122FCF751
:104E7000BDFA204608210122FCF7B8FA0F208DF870
:104E80000300204610210022FCF7B0FA0DF10301C7
:104E9000284601226423FDF78FFE204610210122BF
:104EA000FCF7A4FA204608210022FCF79FFAD02044
:104EB0008DF80300204610210022FCF797FA0DF12F
:104EC0000301284601226423FDF776FE20461021C7
:104ED0000122FCF78BFA204608210122FCF786FA12
:104EE000A4208DF80300204610210022FCF77EFA52
:104EF0000DF10301284601226423FDF75DFE2046E3
:104F000010210122FCF772FAA1272046102100226D
:104F10008DF80370FCF76AFA0DF1030128460122AF
:104F20006423FDF749FE204610210122FCF75EFABA
:104F3000204608210022FCF759FAD6208DF80300FC
:104F4000204610210022FCF751FA0DF103012846FA
:104F500001226423FDF730FE204610210122FCF7D8
:104F600045FA204608210122FCF740FA204610218C
:104F700000228DF80370FCF739FA0DF10301284681
:104F800001226423FDF718FE204610210122FCF7C0
:104F90002DFA204608210022FCF728FAE0208DF89F
:104FA0000300204610210022FCF720FA0DF1030136
:104FB000284601226423FDF7FFFD2046102101222F
:104FC000FCF714FA204608210122FCF70FFAF0271B
:104FD0002046102100228DF80370FCF707FA0DF12E
:104FE0000301284601226423FDF7E6FD2046102137
:104FF0000122FCF7FBF92046102100228DF803A0C6
:10500000FCF7F4F90DF10301284601226423FDF7B2
:10501000D3FD204610210122FCF7E8F9204610219B
:1050200000228DF80360FCF7E1F90DF10301284639
:1050300001226423FDF7C0FD204610210122FCF768
:10504000D5F92046102100228DF80360FCF7CEF937
:105050000DF10301284601226423FDF7ADFD204632
:1050600010210122FCF7C2F92046102100228DF800
:105070000360FCF7BBF90DF103012846012264230C
:10508000FDF79AFD204610210122FCF7AFF92046DA
:10509000102100228DF803B0FCF7A8F90DF10301EF
:1050A000284601226423FDF787FD204610210122B6
:1050B000FCF79CF94FF029082046102100228DF8BA
:1050C0000380FCF793F90DF10301284601226423C4
:1050D000FDF772FD204610210122FCF787F92046DA
:1050E000102100228DF80390FCF780F90DF10301E7
:1050F000284601226423FDF75FFD2046102101228E
:10510000FCF774F94FF03E0A2046102100228DF87A
:1051100003A0FCF76BF90DF103012846012264237B
:10512000FDF74AFD204610210122FCF75FF93820E7
:105130008DF80300204610210022FCF757F90DF1ED
:105140000301284601226423FDF736FD2046102185
:105150000122FCF74BF912262046102100228DF87F
:105160000360FCF743F90DF1030128460122642393
:10517000FDF722FD204610210122FCF737F92046D9
:10518000102100228DF80360FCF730F90DF10301C6
:10519000284601226423FDF70FFD2046102101223D
:1051A000FCF724F928262046102100228DF8036000
:1051B000FCF71CF90DF10301284601226423FDF7D9
:1051C000FBFC204610210122FCF710F930208DF85D
:1051D0000300204610210022FCF708F90DF103011D
:1051E000284601226423FDF7E7FC20461021012216
:1051F000FCF7FCF8204608210022FCF7F7F8E12034
:105200008DF80300204610210022FCF7EFF80DF185
:105210000301284601226423FDF7CEFC204610211D
:105220000122FCF7E3F8204608210122FCF7DEF812
:105230002046102100228DF80370FCF7D7F80DF1FD
:105240000301284601226423FDF7B6FC2046102105
:105250000122FCF7CBF807272046102100228DF809
:105260000370FCF7C3F80DF1030128460122642303
:10527000FDF7A2FC204610210122FCF7B7F80A2016
:105280008DF80300204610210022FCF7AFF80DF145
:105290000301284601226423FDF78EFC20461021DD
:1052A0000122FCF7A3F80D208DF803002046102101
:1052B0000022FCF79BF80DF103012846012264232C
:1052C000FDF77AFC204610210122FCF78FF80B2015
:1052D0008DF80300204610210022FCF787F80DF11D
:1052E0000301284601226423FDF766FC20461021B5
:1052F0000122FCF77BF82046102100228DF8037074
:10530000FCF774F80DF10301284601226423FDF730
:1053100053FC204610210122FCF768F8204610219A
:1053200000228DF80360FCF761F80DF103012846B7
:1053300001226423FDF740FC204610210122FCF7E6
:1053400055F82046102100228DF80390FCF74EF806
:105350000DF10301284601226423FDF72DFC2046B0
:1053600010210122FCF742F82046102100228DF87E
:1053700003A0FCF73BF80DF103012846012264234A
:10538000FDF71AFC204610210122FCF72FF83620E9
:105390008DF80300204610210022FCF727F80DF1BC
:1053A0000301284601226423FDF706FC2046102154
:1053B0000122FCF71BF814262046102100228DF84C
:1053C0000360FCF713F80DF1030128460122642362
:1053D000FDF7F2FB204610210122FCF707F82046DA
:1053E000102100228DF80360FCF700F80DF1030195
:1053F000284601226423FDF7DFFB2046102101220D
:10540000FBF7F4FF2046102100228DF80380FBF704
:10541000EDFF0DF10301284601226423FDF7CCFBCB
:10542000204610210122FBF7E1FF32208DF8030016
:10543000204610210022FBF7D9FF0DF10301284679
:1054400001226423FDF7B8FB204610210122FBF75F
:10545000CDFF204608210022FBF7C8FF21208DF850
:105460000300204610210022FBF7C0FF0DF10301CD
:10547000284601226423FDF79FFB204610210122CC
:10548000FBF7B4FF204608210122FBF7AFFF2046BF
:1054900008210022FBF7AAFF11208DF80300204607
:1054A00010210022FBF7A2FF0DF103012846012283
:1054B0006423FDF781FB204610210122FBF796FFB4
:1054C000204608210122FBF791FF7820FBF7EEFD33
:1054D000204608210022FBF789FF204610210022E8
:1054E0008DF80380FBF782FF0DF1030128460122AE
:1054F0006423FDF761FB204610210122FBF776FFB4
:10550000204608210122FBF771FF01B0BDE8F08FB2
:105510002DE9F04F85B00F9E81464FEA560B3009BA
:1055200004931546884601215FEA4B7218BF01EBD0
:10553000161000FB06F409EB560008EB06010138D3
:10554000013982B28BB248464146FEF77DFF002CFE
:1055500000F09581A6F10C00C0F3850040EA8610AA
:10556000C2B2052A00F28B810120904010F02B0F6F
:1055700000F085811099A5F12000002949F68E2EB2
:1055800047F65A6348F2CE2C48F6BE01C0B2C0F6C8
:10559000000EC0F60003C0F6000CC0F60001039236
:1055A00000F0C48000EB400603EB860701EB061316
:1055B000002502930CEB00130EEB80104E46019376
:1055C000009000BF032A05D0012A05D038462AB131
:1055D000009802E0029800E00198284490F800A0AA
:1055E0005FEACA700AD0B0B21FFA88F102460B46D1
:1055F000FEF72AFF049800F069F9039A701C80B244
:10560000A0EB0901594500F087805FEA8A7109D54E
:105610001FFA88F102460B46FEF716FF049800F0C9
:1056200055F9039AB01C80B2A0EB0901594573D01B
:105630005FEA4A7109D51FFA88F102460B46FEF768
:1056400003FF049800F042F9039AF01C80B2A0EB2B
:105650000901594560D05FEA0A7109D51FFA88F13E
:1056600002460B46FEF7F0FE049800F02FF9039A6D
:10567000301D80B2A0EB090159454DD05FEACA61E7
:1056800009D51FFA88F102460B46FEF7DDFE0498A5
:1056900000F01CF9039A701D80B2A0EB0901594576
:1056A0003AD05FEA8A6109D51FFA88F102460B46B3
:1056B000FEF7CAFE049800F009F9039AB01D80B203
:1056C000A0EB0901594527D05FEA4A6109D51FFAC5
:1056D00088F102460B46FEF7B7FE049800F0F6F894
:1056E000039AF01D80B2A0EB0901594514D04FFA7E
:1056F0008AF1B1F1FF3F09DC1FFA88F102460B463F
:10570000FEF7A2FE049800F0E1F8039A0836B0B262
:10571000A0EB0900584502D108F101084E460135B9
:10572000013C07F101077FF44DAFA8E0DDF838A098
:1057300000EB40010EEB80170026029103EB810184
:105740000CEB00104FF000090191009072B1012A9A
:105750000ED0DDF81080032A38460DD148F6BE0081
:10576000029AC0F6000000EB021004E0019800E08D
:105770000098DDF8108030440578E807404608BFFF
:10578000504600F0A3F809F10100C0B2B0FBFBF1F4
:1057900001FB1B00002869D0A807404658BF5046AF
:1057A00000F094F809F10200C0B2B0FBFBF101FB7C
:1057B0001B0000285AD06807404658BF504600F0EA
:1057C00085F809F10300C0B2B0FBFBF101FB1B003F
:1057D00000284BD02807404658BF504600F076F8C6
:1057E00009F10400C0B2B0FBFBF101FB1B00E8B300
:1057F000E806404658BF504600F068F809F1050039
:10580000C0B2B0FBFBF101FB1B0078B3A806404619
:1058100058BF504600F05AF809F10600C0B2B0FB7C
:10582000FBF101FB1B0008B36806404658BF504619
:1058300000F04CF809F10700C0B2B0FBFBF101FB2E
:105840001B0098B168B2002858BFD046404609F105
:10585000080500F03BF8E8B2B0FBFBF101FB1B09C7
:10586000B9F1000F18BFA94602E000BF4FF00009D0
:10587000039A0136013C07F101077FF467AF05B0D9
:10588000BDE8F08F2DE9F04F83B09B461378CBB184
:10589000DDE90C9ADDF838800D4606464FEA5A07D6
:1058A000541E00BFB0B2DAB229465B46CDE9009A79
:1058B000CDF80880FFF72CFEA3783E44002B04F1BE
:1058C0000104EFD103B0BDE8F08F000070B582B0E5
:1058D00040F600040546000AC4F201048DF80600F3
:1058E000204610210022FBF781FD40F22C16C2F267
:1058F00000060DF10601304601226423FDF75CF934
:10590000204610210122FBF771FD204610210022C4
:105910008DF80750FBF76AFD0DF1070130460122B3
:105920006423FDF749F9204610210122FBF75EFDB3
:1059300002B070BD2DE9F04784B041F21800C4F206
:105940000200016840F6000A41F0100101600168A0
:10595000C4F2010A01F010010091009901680AF5F2
:10596000006541F0200101600168002201F0200182
:105970000091009901684FF4005641F00401016064
:1059800001684FF0000901F00401009100990168DD
:1059900041F00801016000684FF4005100F0080078
:1059A000009000982846FBF721FD50465C2100221C
:1059B0004FF05C08FBF71AFD00966E4601270224A3
:1059C00028463146CDE901790394FBF7F9FB5046AF
:1059D0003146CDE90087CDE90294FBF7F1FB40F2B7
:1059E000034000900020C1F22100CDE901070AF533
:1059F00080603146FBF7E4FB062002210022FCF721
:105A0000BBF90620FCF7A6F9072002210022FCF7CB
:105A1000B3F90720FCF79EF9282002210022FCF7A9
:105A2000ABF92820FCF796F904B0BDE8F087000038
:105A300080B540F2C40045F20041C2F20000C4F259
:105A4000000148F2A06200234FF4804CC0F2010232
:105A500080E80E00C0E9033CC0E90533C0E9073324
:105A6000FBF7D0FC002808BF80BDBDE88040FBF7F5
:105A7000BDBA000080B540F2181042F60001C2F233
:105A80000000C4F200014FF0FF324FF4807380E851
:105A90000E00FCF7DBFE002808BF80BDBDE880409B
:105AA000FBF7A4BA10B540F22C1043F2000CC2F27E
:105AB0000000C4F2010C4FF482724FF40043002145
:105AC0004FF4007E0824C0E900C20A22C0E9023176
:105AD000C0E90411C0E906E4C0E90811C0E90A12EE
