:020000040800F2
:10000000680B0020DD010008C1610008F53D000813
:10001000BD6100081D0F0008016400080000000019
:10002000000000000000000000000000C5620008A1
:10003000210F000800000000C561000841630008AE
:10004000F7010008F7010008F7010008F7010008B0
:10005000F7010008F7010008250F0008350F000818
:10006000F7010008F7010008F7010008F701000890
:10007000F7010008F7010008F7010008F701000880
:10008000F7010008F7010008F7010008F701000870
:10009000F7010008F7010008F7010008F701000860
:1000A000F701000855630008F701000849630008DC
:1000B00061630008F70100086D630008F70100089C
:1000C000F7010008F7010008F7010008C9610008FE
:1000D000F7010008F7010008F7010008F701000820
:1000E0002D0F0008F7010008F701000800F002F8E2
:1000F00000F064F814A696E8000CB244B344DA4564
:1001000001D100F05BF8BAE80F000FA696E83000C6
:10011000A5EB040504EB0607AAEB0704A7F101070A
:100120004FEA15154FEA3414A4F10104AC4201D38F
:1001300000F044F813F0010F18BFFB1A43F001035D
:1001400000F001F8DBE71847C0BA0000E0BA000091
:10015000103A24BF78C878C1FAD8520724BF30C8F3
:1001600030C144BF04680C60704700007047000055
:100170000023002400250026103A28BF78C1FBD8B0
:10018000520728BF30C148BF0B607047662908F08E
:10019000B082642900F0D480002070471FB59DE82C
:1001A000030000F00DFA00F0D5FC0400002000214F
:1001B00007F020FAE0601FBD10B510BD00F0ECFDA7
:1001C0001146FFF7EBFF06F025FB00F00AFE03B433
:1001D000FFF7F2FF03BC00F07BFE000009488047F8
:1001E00009480047FEE7FEE7FEE7FEE7FEE7FEE719
:1001F000FEE7FEE7FEE7FEE704480549054A064B31
:100200007047000045630008ED0000086805002005
:10021000680B0020680700206807002070B50646BC
:1002200000F0B2F9056806F10B0020F00704B442B3
:100230009CBF002070BD2B466A68BAB11068A0420E
:1002400010D304F1080188423CBF5068586007D3BE
:100250005168101941601168091B016058601460F1
:10026000101D70BD13465268002AE7D1214628466A
:1002700000F092F90028DED170BD70B50446051F6C
:1002800000F082F90068002C14BF446870BD002C97
:1002900018BFAC423CBF20466468F8D301680A1816
:1002A000AA4218BF456003D12A680546114401607F
:1002B00028684119A1421CBF6C6070BD616869600B
:1002C00021680844286070BD0FB41CB5074B06AA0E
:1002D0007B4469460090059800F01FFC00206946A9
:1002E00000F02EFC1CBC5DF814FB00006D08000043
:1002F00070B5044685690068C10601D5302600E066
:100300002026C00707D070BDD4E9012130469047B0
:10031000206A401C20626D1EF6D570BD70B5044683
:1003200085690078C00707D170BDD4E9012120207C
:100330009047206A401C20626D1EF6D570BD0000FB
:100340002DE9F0410646002410687529314616A5AE
:1003500010D0AFF30080002802DA404213A507E076
:1003600031688A0701D512A502E0490704D511A515
:10037000012401E0AFF3008000210A2206F12407E6
:1003800009E0B0FBF2FCB0FBF2F302FB1C003030E2
:1003900078541846491C0028F3D123462A46304693
:1003A000BDE8F04100F04CB9000000002D00000055
:1003B0002B000000200000002DE9F05F8946044674
:1003C0004FF0000ADFF824B1FB44C0F820A020461B
:1003D000E168884700287DD0252806D0D4E901218E
:1003E0009047206A401C2062F1E700255F462046C6
:1003F000E16888472028064607DB312E05D2B81968
:1004000010F8200C08B10543F1E7A80701D525F045
:100410000405C4F81CA00027C4F818A02A2E09D08F
:10042000304607F0B9F838B304EB8708303EC8F817
:10043000186019E059F8041B204604EB870291610B
:10044000E1688847012F064618D1E069002820DAC4
:1004500025F020051DE0D8F8180000EB800006EB21
:1004600040003038C8F818002046E1688847064642
:1004700007F092F80028EED1012F0AD02E2E08D1D5
:100480002046E16888477F1C0646022F45F020057C
:10049000C4DBA069002803DA404245F00105A061F1
:1004A000E80701D025F01005A6B1A6F141001928F2
:1004B00002D8203645F400654A463146204625607C
:1004C0004D46FFF763FE60B1012807D0ED1D25F012
:1004D000070000E007E000F1080978E705F10409EA
:1004E00075E730467AE7206ABDE8F09F2A8300006E
:1004F0004FF000020429C0F0128010F0030C00F04D
:100500001B80CCF1040CBCF1020F18BF00F8012BCA
:10051000A8BF20F8022BA1EB0C0100F00DB85FEA98
:10052000C17C24BF00F8012B00F8012B48BF00F864
:10053000012B70474FF0000200B5134694469646D3
:10054000203922BFA0E80C50A0E80C50B1F12001E6
:10055000BFF4F7AF090728BFA0E80C5048BF0CC094
:100560005DF804EB890028BF40F8042B08BF7047F2
:1005700048BF20F8022B11F0804F18BF00F8012B64
:100580007047704770477047004870474000002030
:10059000704770477047704738B504460A460020D8
:1005A0006946AFF30080002808BF38BD02460099B5
:1005B000204600F0D7FA012038BD012000F0E4BB4E
:1005C000F8B5AFF30080054600200C460C2000BFB4
:1005D0000646A819A0420DD9324669460020AFF35D
:1005E0000080070008BF00F0CFFB0098A04218BFB2
:1005F0000546C419FFF7C8FF05600746F01D20F047
:1006000007004619284600F00AF8B44208BFF8BDB2
:10061000A21B31463868BDE8F84000F0A3BA0021BB
:100620000160416070470C20704710B500F096FAE9
:10063000006810BD10B5044600F090FA046010BDCB
:100640002DE9F0470D4699469246044600F12408EC
:100650000168880604D5E06921F01001216000E0FE
:100660000120A84201DD471B00E00027A1697A199B
:1006700002EB0900081AA0612078C00602D42046C7
:10068000FFF736FE002608E0D4E901211AF806003B
:100690009047206A401C761C20624E45F4DB20788F
:1006A000C0060AD52046FFF723FE06E0D4E9012163
:1006B00030209047206A401C2062381EA7F10107B5
:1006C000F4DC07E0D4E9012118F805009047206A1E
:1006D000401C2062281EA5F10105F3DC2046FFF72F
:1006E0001DFE2078000602D50220BDE8F08701201B
:1006F000FBE72DE9FF4F0C461E464FF0FF378BB04E
:10070000D2E90001DDF860800A908A46C1F30A55FB
:1007100005B93D46002108464FF00000BAF1000F30
:1007200000F4400005DA00EB80004FF4400101EADC
:1007300050004FEA9059B9F1010F00DDB9460A980F
:1007400050EA4A000ED044F61050A5F2FF3545435A
:100750002F14B8F1000F1ED07542291E1EDDC9F1FD
:1007600000021CE0B8F1010F4FF0000001D0302171
:1007700003E0F24305E02154401CB042FBDB30466D
:100780000022002121540B99C1F80880C1E9002002
:100790000FB0BDE8F08FBD1B6D1CDEE74A4600DAE6
:1007A000694206A800F07EFA06AB93E8070003ABA7
:1007B00083E8070050460A9906F011FB8DE8070010
:1007C000A0F500501F3800900398002D0ADD42F27A
:1007D0001F014A460844002303A90390684606F017
:1007E0007BFD09E0A0F500504A461F38002303A90D
:1007F0000390684606F085FD8DE807000004000CB4
:1008000003D04FF0FF30410800E01046B8F1000F70
:1008100003D00022009215461EE0751E05D400F09C
:10082000BBF9303262556D1EF9D5B346012208433B
:1008300002D000227F1C04E02078302801D1002261
:100840007F1E002A099784D01DE0112D07DA00F0E1
:10085000A3F9303262556D1C50EA0102F5D108430C
:1008600002D00098C8B10EE00021681E05E0235CAC
:10087000625C63542254401E491C8142F7DBAB4644
:10088000A81B401E0990002004F80B000B98099A41
:10089000C0F80880C0E9002B7AE711264FF0000865
:1008A00057E72DE9F04F88460446D21D22F0070194
:1008B00091B0D1E90001CDE90A0106F059FE0246E6
:1008C0000B98C00F01D02D2007E02068810701D5CB
:1008D0002B2002E0202101EAC000032A099001D068
:1008E000072A05DB03464146204600F09BF90BE151
:1008F0002078800601D5E06900E00620B8F1650F98
:10090000814606D0B8F1660F18D0B8F1670F70D1E4
:1009100031E00020B9F1110F009001DB112301E05B
:1009200009F101030AAA01A90CA8FFF7E2FEDDE91B
:100930000C70002609F10105834647E001204B4673
:1009400000904FF000470AAA01A90CA8FFF7D1FEBA
:10095000DDE90DB00C995D46002610B909F10100E2
:100960000D18B9EB050003D4C0F1FF3609F10105FC
:10097000A5EB09002BE0B9F1010F01DA4FF00109F5
:100980000020B9F1110F0090484601DD112300E06D
:1009900003460AAA01A90CA8FFF7ABFEDDE90C701B
:1009A0004D4600268346207800070AD4AB4500DA7E
:1009B0005D4601A8012D04DD411911F8011C302903
:1009C00007D04F4502DA17F1040F04DA01208246FE
:1009D0000FE06D1EEEE7002F02DCED1B3E4403E04E
:1009E000781CA84200DD7D1CB81B00F1010A4FF005
:1009F00000472078000703D4AA4501DB4FF0FF3AF7
:100A00000021B7F1004F0DF143088DF8431024D0B9
:100A100002202B23002F01DA7F422D230A21021E00
:100A2000A0F1010000DC5FB197FBF1FC97FBF1F254
:100A300001FB1C7C17460CF1300C08F801CDEEE7E9
:100A4000A8F1010003702188090501D5452100E0C6
:100A50006521A0F1010800F8011C09980FA9A1EB7C
:100A60000807FF1D00B10120411901EBEA70A169DF
:100A70003844081A401EA0612078C00602D42046DF
:100A8000FFF736FC099828B1D4E901219047206A84
:100A9000401C20622078C00622D52046FFF728FCA3
:100AA0001EE0002E04DBB34502DD01A8805D00E0FE
:100AB0003020D4E901219047206A401C2062761C36
:100AC000AAF101005FEA000A0AD100F043F8C06809
:100AD0000168405CD4E901219047206A401C2062F3
:100AE000281EA5F10105DCDC07E0D4E9012118F896
:100AF000010B9047206A401C2062381EA7F10107B5
:100B0000F3DC2046FFF70AFC032011B041E60000A9
:100B100001694A1C02610878704700B58FB0CDE9C1
:100B200001310021059105497944CDE903101146B1
:100B30006846FFF741FC0FB000BD0000E5FFFFFF76
:100B40000A6802F8010B0A6070470000004870470D
:100B500038000020004870475800002000487047C7
:100B600038000020034640688C46002818BF8842A1
:100B70003CBF03464068F8D318681844884207D041
:100B80000CF1030020F00700001D411A521A014623
:100B9000081D0A60FFF771BB30B5B0F10A0271F1B0
:100BA00000034FEA900E4EEA817EB0EB0E0061EB3F
:100BB00091014FEA101E4EEA017E10EB0E0041EB50
:100BC00011114FEA102E4EEA016E10EB0E0041EBB0
:100BD00011214FEA104E4EEA014E10EB0E0041EB90
:100BE0001141401841F100014FEAD00040EA417044
:100BF0004FEAD1014FEA810444EA907410EB80057A
:100C000044EB01046D1944EB0404521BA3414FF063
:100C1000000348BF0A3200D530BD401C41F100013D
:100C200030BD00002DE9F0411F460446032601684F
:100C3000072A01F4006004DB08B116A505E016A53B
:100C400003E008B115A500E015A521F01000206013
:100C5000A069C01EA0610FB1401EA0612046FFF731
:100C600047FB4FB1D4E9012138469047206A401C28
:100C70002062C01C206206E0206AFAE7D4E9012164
:100C800015F8010B9047761EF8D22046FFF746FB79
:100C9000BDE8F0814E414E006E616E00494E460047
:100CA000696E66002DE9F047814616468AB03548E0
:100CB00078440DC88DE80D0032487844801C03ACA0
:100CC0000DC884E80D0041F69B300844372190FBA5
:100CD000F1F290FBF1F5A5F1800501FB12041B3C3C
:100CE00002D56442012000E00020DFF898A0804691
:100CF0000027FA44AAF1BE0A0EE0E0070AD0324605
:100D0000684607EB470101230AEB810106F0F9FA77
:100D10008DE8070064107F1C002CEED1194F7F4432
:100D2000AE3F19E0E80715D007EB04100DF1180AE3
:100D300090E80E008AE80E00C068F04201D19819D0
:100D400008903246012306A903A806F0DAFA03AB9D
:100D500083E807006D10641C002DE3D14FF0010300
:100D600032466946B8F1000F03A802D006F0B4FA83
:100D700001E006F0C6FAC9E90001C9F808200AB086
:100D8000BDE8F087D07A000010B500F039F8BDE872
:100D9000104000F02FB870477546FFF7D7FEAE46FB
:100DA00005006946534620F00700854618B020B577
:100DB000FFF722FABDE820404FF000064FF0000791
:100DC0004FF000084FF0000BAC46ACE8C009ACE8AF
:100DD000C009ACE8C009ACE8C00921F007018D46A4
:100DE000704710B50446AFF300802046BDE81040C0
:100DF000FFF7EDB9002801D000F06AB87047000095
:100E000010B5012805D0002103A000F067F80120EB
:100E100010BD09A1F8E7000053494752544D454D14
:100E20003A204F7574206F662068656170206D658B
:100E30006D6F7279000000003A2048656170206D86
:100E4000656D6F727920636F72727570746564007E
:100E50004FF0013C50F8042B51F8043B9A4221D149
:100E6000A2EB0C03934313EACC1317D150F8042BD5
:100E700051F8043B9A4215D1A2EB0C03934313EAB9
:100E8000CC130BD150F8042B51F8043B9A4209D1F2
:100E9000A2EB0C03934313EACC13DBD04FF000001A
:100EA000704700BFD01A01BAB1FA81F101F0180100
:100EB00022FA01F0CB40DBB2C0B2C01AC1F120016E
:100EC0002CFA01F3D11A914311EAC311E6D170470C
:100ED00001491820ABBEFEE72600020070B50546AA
:100EE0000C460A2000E06D1C00F011F835B128789E
:100EF0000028F8D102E0641C00F009F814B1207851
:100F00000028F8D1BDE870400A20AFF3008008B592
:100F100069468DF800000320ABBE08BDFEE7000067
:100F200070470000012000F021BA00004FF48060FB
:100F300000F01CBA022000F019BA0000EFF3108094
:100F400072B600BFFEE7000070B542F20C06044620
:100F5000C4F2020600F02AFB3168C90718D13068D4
:100F6000800644BF202030603068C00607D4306956
:100F7000C00704D1306840075CBF002070BD3068F6
:100F8000C00623D40020316849072BD434E000BFC9
:100F9000002C47D00546601C0ED13068C007DED05B
:100FA0003068C0071CBF30685FEAC070D7D03068B7
:100FB000C007F2D1D3E700BF00F0F8FA401BA0420F
:100FC00030D83068C007F7D1C9E700BF40F24050C1
:100FD000C2F20000C16941F00201C1611020316814
:100FE000490709D540F24051C2F20001CA6940F0F8
:100FF000040042F00102CA613169C90702D13060C0
:10100000012070BD40F24051C2F20001CA6942F0B5
:101010000402CA61316921F00101316130600120AF
:1010200070BD00BF032070BD90F82110022923D1AC
:101030000268116821F00E0111602F211368C4F2BB
:1010400002018A4240F20401C4F2020123F00103CA
:10105000136015DD3023C4F202039A421CD04423EE
:10106000C4F202039A421BD05823C4F202039A42EC
:101070001CD14FF4803321E00421816301207047AB
:101080000823C4F202039A420ED01C23C4F20203C6
:101090009A420BD1102311E04FF480730EE000BF91
:1010A0004FF480530AE000BF012307E001F1680C10
:1010B0004FF08073624508BF4FF480130B6001212D
:1010C00080F82110426B002180F8201022B180B5F9
:1010D00090470021BDE8804008467047B0B50446FF
:1010E00000F064FA054640F22800C2F200000078E1
:1010F000611C18BF044400BF00F058FA401BA04216
:10110000FAD3B0BD2DE9F04381B040F24056C2F2AF
:101110000006327E012A03D1022001B0BDE8F0832F
:10112000054601202C6830764CF250308846FFF797
:101130000BFF022C1CD100284ED1002042F21004DB
:10114000F061C4F20204206840F0040020602068CE
:1011500040F0400020604CF25030FFF7F5FE21686F
:1011600021F0040121600021317601B0BDE8F08357
:1011700090BB4FF0FF30C8F80000D5E9027007EBD4
:101180008020874228D242F21004C4F202044FF0B9
:10119000000900BFC6F81C90206840F002002060E3
:1011A0006760206840F0400020604CF25030FFF74C
:1011B000CBFE216821F00201216098B9D5E9020136
:1011C00007F5806700EB81208742E3D300200021F0
:1011D000317601B0BDE8F08301200021317601B005
:1011E000BDE8F083C8F800700021317601B0BDE899
:1011F000F083000042F21001C4F20201086840F0DE
:10120000800200200A6070472DE9F04F81B040F263
:101210004059C2F20009924699F81820012A03D1D8
:10122000022001B0BDE8F08F8046012089F8180047
:101230004CF250309B460E46FFF786FEA0BB404660
:1012400042F21007B8F1020F18BF0420C4F20207DF
:10125000B8F1010F08BF404645424FF00008002496
:10126000C4F12001C9F81C802AFA04F00BFA01F13C
:101270003A680843B4F1200158BF2BFA01F042F05C
:101280000101396026F8020B4CF25030FFF75CFE8A
:101290003968013521F0010248F100013A6018B9BE
:1012A000002904F11004DBD0002189F8181001B0E6
:1012B000BDE8F08F42F20400C4F20200C1680906E2
:1012C0005CBF0020704740F22311C4F267510160F7
:1012D00048F6AB11CCF6EF510160C068C0B2C0094E
:1012E0007047000080B5B0F5806F17D002281FD07E
:1012F00001281CD140F60040C4F20100012100F099
:1013000049F9A0B946F2B932C0F600024FF47A703A
:101310000121BDE8804005F02FB800BF40F6004035
:10132000C4F201004FF4806100F034F9A0B180BD37
:1013300040F60040C4F20100022100F02BF9002821
:1013400018BF80BD46F27142C0F600026420002141
:10135000BDE8804005F010B846F20542C0F6000234
:1013600064200021BDE8804005F006B840F2144139
:10137000C4F201010A68024214BF08607047FFF717
:10138000B1BF00002DE9F04F82B00E68002E00F0D2
:10139000FD8041F20042C4F20102042340F2004EFB
:1013A000904208BF03234FF6FF7CC4F2010E009366
:1013B00000240123C1F2100C4FF0000A4FF0000985
:1013C00044E000BF012704F00C030F229A402BEAEF
:1013D000020207FA03F34FEA9A051A4346F825205A
:1013E0004E6840F20C45F202DEF8082054BF22EAB3
:1013F000080242EA0802C4F20105CEF808202A6871
:10140000B30254BF22EA080242EA08022A60B30388
:10141000DEF8042054BF22EA080242EA0802F3037D
:10142000CEF80420DEF800204FF0010354BF22EA7A
:10143000080242EA0802CEF800200E680AF1010A0A
:1014400036FA0AF204F1040400F0A08003FA0AFB61
:1014500016EA0B08F1D04E68664511DC122E55D8FD
:10146000DFE806F0340A4448545454545454545455
:1014700054545454544C5000D1F80C9046E000BFE2
:101480004FF6FF72C1F2210296420FDC0022C1F238
:10149000110296421AD00022C1F21202964215D0D1
:1014A0000022C1F22102964210D02FE00022C1F2A8
:1014B000220296420AD00022C1F23102964205D0A1
:1014C0000022C1F23202964220D100BF8A684AB19E
:1014D000012A14BFC0F814B0C0F810B04FF00809CA
:1014E00014E000BF4FF0040910E000BFCA6802F129
:1014F00008090BE04FF0000908E000BFCA6802F1DC
:10150000040903E0CA6802F10C0900BF224606463E
:10151000B8F5807F24BF203A043637680F25954000
:1015200027EA050509FA02F22A433260CA79D2068F
:101530007FF583AF41F21803C4F202031A68AEF5D7
:101540007E7642F001021A601A6802F001020192EE
:10155000019A2AF0030256F802B040F60002C4F2E3
:101560000102904210D040F60042C4F201029042C3
:101570003FF428AF41F20002C4F20102009F904202
:1015800008BF02271FE700BF00271CE702B0BDE825
:10159000F08F00008068084018BF012070470000ED
:1015A000002A08BF090401617047000040F2605042
:1015B000C2F2000000687047002804BF0120704795
:1015C000F0B581B0044690F83D0028B9002084F8B9
:1015D0003C00204600F0FEFB242084F83D002068FB
:1015E000016821F001010160016841F400410160DE
:1015F000016821F40041016000F0BAFE636848F21E
:10160000A16CC0F2010C40F60011C0F23D0163452F
:101610003CBF48F28041C0F21E01884202D2012044
:1016200001B0F0BD4DF68361C4F21B31A0FB011285
:101630002168970CD1F804E04FF496762EF03F0520
:1016400045EA92454D60774348F638160D6AC0F278
:101650004106A7FB067625F03F07634538BF960C89
:10166000721C3A430A62CA6948F2A0664CF6FF77D8
:10167000C0F20106B34222EA07020BD801385B0030
:10168000B0FBF3F001306FF31F30042898BF042043
:101690001BE000BFA768013857B119277B43B0FB97
:1016A000F3F001306FF31F3070B100F5804007E0B8
:1016B00003EB4303B0FBF3F001306FF31F3018B1BD
:1016C00000F5004001E000BF01201043C861086838
:1016D000D4E9072320F0C00010431843086088684D
:1016E00048F2FF3204F10C0790438CCF18431043AB
:1016F000A6698860C86820F0FF0038433043C8609E
:10170000086840F00100086000202021206484F86F
:101710003D10206384F83E0001B0F0BD2DE9F04F8C
:1017200083B01E46924688460446FFF73FFF94F872
:101730003D10202924D12168054600BF8869800713
:101740001AD5FFF733FF401B21681A28F6D38869A2
:101750008007F3D500202021206384F83D1084F811
:101760003E00216C022641F02001216484F83C00F7
:10177000304603B0BDE8F08F94F83C00012805D155
:101780000226304603B0BDE8F08F00BF4FF00109DC
:1017900084F83C900868C00703D1086840F0010055
:1017A00008600868002720F400600860242084F89E
:1017B0003D000020CFF6FF702764E06208F0FE08CD
:1017C000BAF1010F88BFD1464FF0A00A4FF0200BAD
:1017D00004E000BF01374F4500F09A8008680022FE
:1017E00040F48070086020464FF0011133460095A8
:1017F00002F04EFC2168002856D1C1F81080FFF796
:10180000D5FE21684B694A6994F83D50A02D0546E4
:1018100005D013F0020008BF12F480601AD084F8DB
:101820003DB048690A68800742F400720A6047D4F4
:101830006FF48060486100BF88698007CAD5FFF7F0
:10184000B5FE401B21681A28F6D388698007F3D5B6
:101850004CE000BFB6B100BFFFF7A8FE401BB0428E
:1018600088BF84F83DA021684A69486994F83D30F2
:10187000A02BD4D012F0020208BF10F48060EBD08D
:10188000CDE700BFFFF792FE84F83DA021684A69CA
:10189000486994F83D30A02BC1D012F00202BED1AD
:1018A00010F48060EED0BAE708680326C00544BF94
:1018B0004FF400702064304603B0BDE8F08F00BFE5
:1018C0000026029648690290886902900298886909
:1018D00001E000BF8069800720D5FFF767FE411B4C
:1018E00020681A29F6D381698907F3D500202021C1
:1018F000206384F83D1084F83E00216C41F0200103
:101900002164012684F83C00304603B0BDE8F08F26
:10191000202084F83D000020F3E700BF202084F859
:101920003D0084F83C60304603B0BDE8F08F000015
:101930002DE9F04F85B004460020994616460F4623
:101940000490FFF733FE94F83D10202927D1054677
:10195000206800BF816989071CD5FFF727FE411B5E
:1019600020681A29F6D381698907F3D50020202140
:10197000206384F83D1084F83E00206C04F13C0A9A
:1019800040F020002064022000218AF8001005B0F9
:10199000BDE8F08FA2461AF83C1F012904D10220AD
:1019A00005B0BDE8F08F00BF01228AF8002003686F
:1019B000DDE90F180E9ADB0703D1036843F001033A
:1019C0000360036823F400630360222084F83D0071
:1019D000402084F83E000020206462626185608DB2
:1019E000394620850020CFF6FF70E062204632465F
:1019F0004B46CDE9008502F0FFF918B1012005B092
:101A0000BDE8F08F208D022810D0012824D00028B6
:101A100038D10020039020684169039181690391C6
:101A20000399016841F40071016037E020680168A2
:101A300041F400610160EFF3108072B60020039062
:101A4000206841690391816903910399016821F438
:101A50008061016062B621E02068016821F4806144
:101A60000160EFF3108072B6002003902068416996
:101A70000391816903910399016841F40071016048
:101A800062B60BE02068016841F4806101600021CA
:101A9000039141690391806903900398208D002888
:101AA00000F0CA80042740F234094BF2895BC0F28F
:101AB0000107C2F20009C1F2F84B232617E000BF6C
:101AC000204641462A4602F035FC002896D120687F
:101AD000616A00690870606A218D01306062481E89
:101AE0002085618D01396185010400F0A58080B2F7
:101AF000032865D8022800F07F800128E0D0204626
:101B0000394600224346009502F0C2FA00287FF4CD
:101B100075AF2068016821F480610160EFF31080E7
:101B200072B62068616A00690870606A218D0130B0
:101B3000013960622185618D01396185D9F8001014
:101B4000C908A1FB0B12110A7143049104990139D0
:101B500004910499002900F07B8021684A695207AA
:101B60001DD40499013904910499002970D0216889
:101B70004A69520713D40499013904910499002940
:101B800066D021684A69520709D404990139049141
:101B9000049900295CD021684A695207D6D50A68A1
:101BA00042F400720A6009690170606A218D013097
:101BB0006062481E2085608D0138608562B686E7C8
:101BC000204641462A4602F0B5FB00287FF416AFB6
:101BD0002068616A00690870606A2268411C208D73
:101BE000616201382085638D013B638553695B0722
:101BF0007FF57AAF10696DE72046394600224346EB
:101C0000009502F045FA00287FF4F8AEEFF310805B
:101C100072B62068616A026842F40072026000696C
:101C20000870606A218D01306062481E2085608DD9
:101C30000138608562B64AE7202084F83D00002024
:101C400084F83E0000218AF8001005B0BDE8F08F4E
:101C500000202021206384F83D1084F83E00206C91
:101C600040F02000206462B6012000218AF80010B4
:101C700005B0BDE8F08F00002DE9F04383B0994630
:101C800016460F460446FFF791FC94F83D102029B4
:101C900024D10546206800BF816989071AD5FFF75E
:101CA00085FC411B20681A29F6D381698907F3D581
:101CB00000202021206384F83D1084F83E00216C30
:101CC00041F02001216484F83C00022003B0BDE80B
:101CD000F08300BF94F83C10012903D1022003B027
:101CE000BDE8F083012284F83C200368DDE90B188D
:101CF0000A9ADB0703D1036843F00103036003681A
:101D000023F400630360212084F83D00402084F820
:101D10003E000020206462626185608D3946208526
:101D20000020CFF6FF70E062204632464B46CDE9F8
:101D3000008502F0EBF818B1012003B0BDE8F08394
:101D4000208D98B9204641462A4602F043F988B3CF
:101D5000206C0428F0D12068016841F40071016012
:101D6000012003B0BDE8F0830004EBD020464146DB
:101D70002A4602F027FB0028EAD1616A2268084659
:101D800010F8013B1361238D6062581E2085678D1A
:101D9000013F678557697F07E6D50704E4D0487897
:101DA0001061881C6062981E2085618D01396185F3
:101DB000DAE700BF2068016841F40071016020206B
:101DC00084F83D00002084F83E0084F83C0003B015
:101DD000BDE8F08310B586B045F200410068C4F25A
:101DE000000100228842049202D006B010BD00BF5C
:101DF00041F21804C4F20204206840F00800206098
:101E0000206800F0080001900198C0200290122084
:101E100003900320059001F5384002A9FFF7B2FABC
:101E2000606840F400106060606800F40010019089
:101E3000019806B010BD000040F2280040F2605149
:101E4000C2F20000C2F2000100780A681044086083
:101E50007047000080B542F20000C4F20200016841
:101E600041F010010160032000F08CF8002000F028
:101E700005F800F027F8002080BD000070B540F2A2
:101E80002806C2F2000640F234013278C2F20001A4
:101E90004FF47A730968B3FBF2F20446B1FBF2F136
:101EA000084600F03FFF0F2C4FF0010508D838B965
:101EB0004FF0FF3021460022002500F037F8746013
:101EC000284670BD82B041F21800C4F202000168D9
:101ED000022241F001010160016801F0010101915C
:101EE0000199416841F080514160406800F08050A4
:101EF000009000980420C4F20100016862F31A61A6
:101F0000016002B070470000002848BF704700F031
:101F10001F01012202FA01F11C2202EAD0004EF256
:101F20000012CEF2000281507047000010B54EF64C
:101F30000C5CCEF2000CDCF80030C3F3022E8EF005
:101F40000704042C28BF0424BEF103034FF0FF3E16
:101F50000EFA04F438BF0023A14399400EFA03F3AC
:101F60009A43114300F00F0200F160430901043A63
:101F700003F564436244002848BF02F10C03197062
:101F800010BD00004EF60C51CEF200010A684FF66B
:101F9000FF031A4060F30A2242F0806040F0FD70B7
:101FA000086070472020C4F20E20012101607047B4
:101FB00001280FD002282DD0102808D141F20401A9
:101FC000C4F202010A6851F8040CC00134D40020A4
:101FD000704700BF41F20400C4F20200C16940F240
:101FE00002320A40B2F5817F04BF4FF400407047CF
:101FF00001F44071B1F5407F2AD0B1F5007F1CBFDC
:1020000000207047006A49F64041800701EAE0700D
:10201000704700BF80B500F0BFF941F20401C4F27F
:10202000020109680222C1F3813102EB4101B0FBD8
:10203000F1F0BDE880407047C2F3834015A3185CFF
:10204000D2030DD440F60012C0F23D02504313E01B
:1020500050F8040C4FF22441800301EAE07070470D
:102060000A6810A3C2F340429A5C41F20023C0F216
:102070007A03B3FBF2F250430968490248BF704744
:102080004AF6AB214000CAF6AA21A0FB010148088C
:10209000704700BF02030405060708090A0B0C0D70
:1020A0000E0F1010010200002DE9F04182B004462D
:1020B000007841F21C06C007C4F202064AD030681C
:1020C0005FEAC00808D4306840F080503060306863
:1020D00000F080500190019847F20007C4F2000719
:1020E0003868C00512D4386840F480703860FFF753
:1020F0005DFA05463868C00508D4FFF757FA401B5B
:102100006428F7D9032002B0BDE8F081706810F4AC
:10211000407012D0616801F4407188420DD070683F
:1021200040F24042C4F24222012320F44071136085
:102130000023C0071360716026D17068616820F4C5
:1021400040700843B8F1000F706003D4306820F08D
:10215000805030602068810707D556F8181CA268A7
:1021600021F44041114346F8181CC00607D556F823
:10217000180CE16820F48000084346F8180C002091
:1021800002B0BDE8F08100BFFFF710FA054641F24A
:10219000883700BF70688007CFD4FFF707FA401B6D
:1021A000B8424FF00300F5D9EAE70000002804BF69
:1021B000012070472DE9F04381B042F20008C4F2DB
:1021C00002080446D8F800000D4600F007008842D7
:1021D0000CD2D8F8000020F007002843C8F800000F
:1021E000D8F8000000F00700A8426CD1206841F246
:1021F00004098107C4F2020917D5410705D5D9F8AA
:10220000001041F4E061C9F80010010705D5D9F8C4
:10221000001041F46051C9F80010D9F80010A2680C
:1022200021F0F0011143C9F80010C00742D1D8F8DD
:10223000000000F00700A8420CD9D8F8000020F0F8
:1022400007002843C8F80000D8F8000000F0070095
:10225000A84238D12068410707D5D9F80010E268B4
:1022600021F4E0611143C9F80010000708D5D9F83E
:102270000000216920F4605040EAC100C9F8000064
:10228000D9F8002002F00C00082841F20020C0F22A
:102290007A0051D14BF6AA33C2F38341C0F6000352
:1022A000595CD2033CD440F60010C0F23D004843D4
:1022B00042E000BF606802280AD001282AD159F8FC
:1022C000041C890308D4012001B0BDE8F08300BFDD
:1022D00059F8041C8901F6D5D9F8001021F0030142
:1022E0000843C9F80000FFF761F9064641F2883754
:1022F000D9F80000616800F00C00B0EB810F96D0B7
:10230000FFF754F9801BB842F2D9032001B0BDE8B1
:10231000F08300BF59F8041C8907D4D5DCE700BF5F
:10232000D9F8002048F2B473C2F34042C0F600036B
:102330009A5C4843B0FBF2F0D9F8001048F29C7266
:10234000C1F30311C0F60002515C40F2340220FADE
:1023500001F140F22C00C2F200000068C2F200025B
:102360001160FFF78BFD002001B0BDE8F083000095
:1023700040F2340041F20401C2F20000C4F2020152
:102380000068096848F2AC72C1F30221C0F600028D
:10239000515CC8407047000040F2340041F2040133
:1023A000C2F20000C4F202010068096848F2AC728F
:1023B000C1F3C221C0F60002515CC8407047000062
:1023C000002804BF012070472DE9F04182B0044687
:1023D000007841F20006C007C4F202060CD0706813
:1023E00000F00C00042840F081803068800303D5A1
:1023F0006068002800F04E81207880071BD5706847
:1024000010F00C0F09D0706800F00C00082840F0A4
:102410008B807068C00300F187803068800703D527
:102420002069012840F036813068616920F0F800A9
:1024300040EAC10030602078000713D420784007BC
:102440002CD4E569002D00F02081706800F00C00AC
:10245000082840F0AF80012D40F00C81012002B02F
:10246000BDE8F081A069002800F08C800020C4F253
:1024700042200121C0F88014FFF798F8054600BFFC
:10248000706A800700F1BA80FFF790F8401B0228BD
:10249000F6D9032002B0BDE8F08100BFF0695FEA21
:1024A000C00808D4F06940F08050F061F06900F095
:1024B00080500090009847F20007C4F20007386887
:1024C000C0054DD4386840F480703860FFF76EF86E
:1024D000054600BF3868C00542D4FFF767F8401BC7
:1024E0006428F7D9032002B0BDE8F081706800F0DD
:1024F0000C00082803D17068C0033FF576AF606810
:10250000002800F00981B0F5A02F00F01D81B0F582
:10251000803F00F01D81306820F4803030603068EA
:1025200020F4802017E100BF2069002840F200005D
:10253000C4F2422000F08C8001210160FFF736F8E0
:10254000054600BF306880073FF56EAFFFF72EF8F5
:10255000401B0228F6D9032002B0BDE8F08100BF7D
:10256000E068002800F09A80052800F0B18001287A
:1025700000F0B280306A20F001003062306A20F052
:102580000400ACE00020C4F242200021C0F8801416
:10259000FFF70CF8054600BF706A80077FF54EAF65
:1025A000FFF704F8401B0228F6D9032002B0BDE86B
:1025B000F08100BF0027C4F2422700203866FEF7F2
:1025C000F5FF022D05460DD13068800140F1D6801F
:1025D000FEF7ECFF401B02284FF00300F4D902B0D5
:1025E000BDE8F081306880014FD5FEF7DFFF401B6A
:1025F00002284FF00300F5D9F1E700BF40F23400A4
:10260000C2F20000006844F6D351C1F26201A0FB9F
:102610000101480A019000BF00BF0198411E002837
:1026200001913FF40BAF00BF0198411E00280191BA
:102630003FF404AF00BF0198411E002801913FF410
:10264000FDAE00BF0198411E00280191E4D1F5E6DE
:1026500000210160FEF7AAFF054600BF3068800731
:102660007FF5E9AEFEF7A2FF401B02284FF0030002
:10267000F4D9B4E77068216A00F480328A4209D143
:10268000616A00F47010884204D1002002B0BDE8F5
:10269000F08100BF012002B0BDE8F081306A20F077
:1026A00001003062306A20F004003062FEF77EFFE5
:1026B000054641F2883700BF306A800722D5FEF711
:1026C00075FF401BB8424FF00300F5D987E700BF04
:1026D000306A40F004003062306A40F0010030623D
:1026E000FEF764FF054641F2883700BF306A800775
:1026F00008D4FEF75BFF401BB842F7D9032002B0B5
:10270000BDE8F081B8F1000F3FF59BAEF06920F015
:102710008050F06195E600BF306820F48030306072
:10272000306820F480203060FEF740FF054600BF8F
:10273000306880037FF560AEFEF738FF401B6428E9
:102740004FF00300F4D94AE7306840F4802030604D
:10275000306840F480303060FEF728FF054600BF47
:10276000306880033FF548AEFEF720FF401B642829
:10277000F6D9032002B0BDE8F08100BF206AB0F5B1
:10278000803F05D17168A26821F400311143716066
:102790007168626A21F4741111430843706001206A
:1027A0003866FEF703FF0446306880013FF56DAFE1
:1027B000FEF7FCFE001B02284FF00300F4D90EE7E1
:1027C00070B5002866D00446407C20B900202074F3
:1027D000204600F06FF8022060742068416821F004
:1027E00008014160FEF7E2FE064600BF206845682A
:1027F000FEF7DCFE290705460ED4A81BB0F57A7F4C
:10280000F4D9012504206074284670BDFEF7CEFE81
:10281000401BB0F57A7FF4D8216848688006F5D56A
:10282000486846F62C4240F0100048604868C4F200
:10283000000220F007004860A06818B1536823F038
:1028400001035360136823F46073184310606068D9
:10285000421C06D101200125FFF7AAFB30B32168F5
:102860000138C0F3034280B28A60C860486820F033
:1028700010004860FEF79AFE054600BF20684068D9
:10288000800609D4FEF792FE401BB0F57A7FF5D999
:10289000B7E700BF012070BD40F201100025A4F889
:1028A0000D000120E5736074284670BD042060743B
:1028B000284670BD006842F60001C4F2000188425B
:1028C00018BF704780B582B0FFF76CFB41F21C0067
:1028D000C4F20200016841F000610160006801215A
:1028E00000F000600190019840F23C40C4F24220A8
:1028F000016002B0BDE880407047000070470000F2
:10290000B0B584B0044600684168826802F04103B3
:10291000012B09D111F0400306D0216C204604B0F0
:10292000BDE8B040084700BF930709D511F0800308
:1029300006D0616C204604B0BDE8B040084700BF37
:1029400012F0600F18BF11F0200301D104B0B0BD28
:10295000530618D594F85130032B09D10021029168
:10296000C168029180680290029804B0B0BD00BFB7
:10297000636D43F00403636500230393C36803930B
:1029800083680393039B92060CD5626D42F00102AB
:1029900062650022019282680192026822F0400280
:1029A0000260019A626D002AD0D04268890722F045
:1029B000E00242604FF0010284F8512020D04168CB
:1029C00046F2D51521F003014160E06CC0F6000528
:1029D00038B14563FEF728FB18B1606D40F0400048
:1029E0006065A06C0028B1D04563FEF71DFB002890
:1029F000ACD0606D40F04000606504B0B0BD00BF79
:102A0000204604B0BDE8B040FFF778BF70B538B1DC
:102A10000446406A30B10020206104F1140007E050
:102A2000012070BD6068B0F5827F03D004F11C0006
:102A3000002101600026A66294F8510020B92046CA
:102A400084F8506000F038F8022084F8510094E8CF
:102A5000071001F48271036802F4044223F040037A
:102A60000360236911440CF40062114403F0020274
:102A70006369114403F00102A369E569114403F499
:102A80000072114405F03802256A114405F08002F5
:102A9000A56A114305F4005211430160042101EAC3
:102AA00013414160C16921F40061C1610120666583
:102AB00084F85100304670BD80B586B0014640F6BE
:102AC0000000C4F20100096800F520530022994279
:102AD000049201D006B080BD41F21801C4F2020197
:102AE0000A6842F480520A600A6802F48052019235
:102AF000019A0A6842F004020A60096801F00401C0
:102B000001910199A02102910221039103210591D4
:102B100002A9FEF737FC232002210022FFF706FA64
:102B20002320FFF7F1F906B080BD00002DE9F04148
:102B300082B0044690F85000012803D1022002B070
:102B4000BDE8F08101201D4616460F4684F850006E
:102B5000FEF72CFD94F8511001290DD18046002F6D
:102B60004FF0010018BF002E0ED1002184F8501044
:102B700002B0BDE8F08100BF0220002184F85010AF
:102B800002B0BDE8F08100BF0320002184F85100AD
:102B900061652763A686E686A163A187E187A068B1
:102BA0002164B0F5004F2068616407D1016821F00D
:102BB00040010160016841F48041016001684906FB
:102BC00003D4016841F0400101606168731EE2684E
:102BD000B1FA81F1B3FA83F349095B09B2F5006FE9
:102BE00041EA03013AD131B137F8021BC1602763D2
:102BF000E08E0138E086E08E002869D0681C0CD198
:102C00001BE000BF216B31F8022BC2602163E08E14
:102C10000138E086E08E00285AD020688168890754
:102C2000F0D4FEF7C3FCA0EB0800A842F2D338E0D2
:102C3000FEF7BCFCE08E00284AD020688168890736
:102C4000F6D5216B31F8022BC2602163E08E01388A
:102C5000E086E08E0028F0D13AE000BF39B1397843
:102C60000173206B01302063E08E0138E086E08E36
:102C700070B3681C0BD11BE0216B09780173206BCA
:102C800001302063E08E0138E086E08E00B32068DA
:102C900081688907F0D4FEF789FCA0EB0800A84200
:102CA000F3D3032035E000BFFEF780FCE08E78B15F
:102CB000206881688907F7D5216B09780173206B3B
:102CC00001302063E08E0138E086E08E0028EFD1ED
:102CD000204680212A46434603F082FA28B1606DDF
:102CE00040F02000606520206065A06838B90020B1
:102CF00001902068C1680191806801900198606D21
:102D000030B10120002184F8501002B0BDE8F081FC
:102D10000020012184F85110002184F8501002B0E5
:102D2000BDE8F081411E0020B0EB116F1CBF0120F7
:102D300070474EF21002CEF2000251604EF623515F
:102D4000CEF20001F0230B700721906011607047F4
:102D5000704700007047000090F83C20012A4FF0B7
:102D6000020236D010B580F83D200268D2F804E0A7
:102D7000D2F808C00C682EF07003234340F2FF74B1
:102D8000C4F20004A24253600ADCB2F1804F13D0B7
:102D900040F20043C4F200039A420DD011E000BF9C
:102DA00042F60043C4F201039A4205D040F6000304
:102DB000C4F200039A4204D149682CF080031943FD
:102DC00091600121002280F83D1080F83C20BDE890
:102DD0001040104670470000002804BF01207047D3
:102DE00010B5044690F83D0028B9002084F83C0056
:102DF000204600F067F8022084F83D00206840F289
:102E0000FF730268C4F2000342F6004C9842C4F219
:102E1000010C15DCB0F1804F1AD040F20041C4F231
:102E20000001884214D0984218DCB0F1804F1DD0C8
:102E300040F20041C4F20001884217D01AE000BFFE
:102E4000604505D040F60001C4F200018842EAD195
:102E5000A16822F070020A439842E6DD604505D081
:102E600040F60001C4F20001884203D1216922F436
:102E700040720A43A36922F08001D4F804E0E268BA
:102E8000194360450160C262C0F828E002D161695F
:102E9000CCF8301001214161002084F8461084F8FC
:102EA0003E1084F83F1084F8401084F8411084F8F4
:102EB000421084F8431084F8441084F8451084F8D4
:102EC0003D1010BD80B586B0006840F2FF72C4F2BC
:102ED000000200219042059118DCB0F1804F5DD0D6
:102EE00040F20041C4F2000188420CD141F21C00C2
:102EF000C4F20200016841F002010160006800F0C4
:102F000002000190019806B080BD00BF40F60001AC
:102F1000C4F20001884259D042F60041C4F20101D6
:102F20008842F0D141F21C00C4F2020050F8041CA7
:102F300041F4006140F8041C50F8041C01F40061E5
:102F40000191019950F8041C41F0040140F8041C5F
:102F500050F8040C02A900F00400019001984FF40D
:102F600080700290002003900120049040F6000041
:102F7000C4F20100FEF706FA192004210022FEF730
:102F8000D5FF1920FEF7C0FF1B2002210022FEF70B
:102F9000CDFF1B20FEF7B8FF06B080BD41F21C003C
:102FA000C4F202000168002241F0010101600068E2
:102FB000022100F00100019001981C20FEF7B6FFED
:102FC0001C2006B0BDE88040FEF79EBF41F21C0009
:102FD000C4F202000168002241F0040101600068AF
:102FE000062100F00400019001981E20FEF79EFFCC
:102FF0001E2006B0BDE88040FEF786BF90F83D1069
:1030000001291CBF01207047022180F83D10006893
:1030100040F2FF72C168C4F20002904241F0010127
:10302000C16009DCB0F1804F12D040F20041C4F21F
:10303000000188420CD012E042F60041C4F20101C6
:10304000884205D040F60001C4F20001884206D152
:10305000816801F00701062904BF0020704701685C
:1030600041F0010101600020704700000146006846
:1030700041F21113C26822F00102C260026A1A42D0
:1030800004D00122002081F83D207047026A40F2FE
:1030900044431A42F5D1026822F001020260012283
:1030A000002081F83D20704790F83C20012A4FF025
:1030B000020200F0C58080B580F83D20D0F800C045
:1030C0004FF67772DCF8083023EA0202CCF80820C9
:1030D0000B684F2B28DC1F2B44DD202B45D0302BD9
:1030E00043D0402B40F0AE80D1F804E0C968DCF852
:1030F0002030DCF8202022F00102CCF82020DCF87F
:10310000182022F0F00242EA011123F00A0242EAFA
:103110000E02CCF81810CCF82020DCF8081041F092
:10312000470121F0300180E06F2B27DDB3F5005F10
:1031300048D0B3F5805F7AD0702B40F08380D1E91E
:1031400001E3C968DCF8082043EA0E0322F47F4259
:1031500043EA01211143CCF80810DCF8081041F0D3
:10316000770162E00BB1102B6CD1DCF8081021F074
:103170007001194341F0070157E000BF502B35D0D3
:10318000602B5FD1D1F804E0C968DCF82030DCF8AE
:10319000202022F01002CCF82020DCF8182022F4A5
:1031A000704242EA013123F0A00242EA0E12CCF84A
:1031B0001810CCF82020DCF8081041F0670121F04D
:1031C000100132E0D1E901E3C968DCF8082043EAE4
:1031D0000E0322F47F4243EA01211143CCF8081088
:1031E000DCF8081041F480411FE000BFD1F804E092
:1031F000C968DCF82030DCF8202022F00102CCF88D
:103200002020DCF8182022F0F00242EA011123F01D
:103210000A0242EA0E02CCF81810CCF82020DCF8A2
:10322000081041F0570121F02001CCF808100022CD
:10323000012180F83D10002180F83C10BDE880405D
:10324000104670470122F3E770B5044642F620406D
:10325000C4F201002168A0F12002914200D070BDAB
:10326000217F0129FBD140F2AC05C2F20005E968DB
:103270000029F4D140F23001C2F200010A78012A9B
:1032800010D102220A70016821F00A010160016870
:1032900041F00201016000214160204600F08EFDF6
:1032A000286170BD087802280ED1032008702046DE
:1032B000002100F083FD68612068016A21F00A01A5
:1032C0000162016A016270BD0878032818BF70BDF1
:1032D00001260E702046002100F070FD286128694B
:1032E000013005F049F8014645F20000C4F2C37010
:1032F00004F018FF68606869013005F03DF829693D
:103300000446481C05F038F80146204604F00AFF40
:10331000A860EE6070BD000090F83C30012B04BF47
:10332000022070474FEAB202032A23D8F0B5DFE843
:1033300002F00327476500BF0368D1E900C5D1F853
:103340000CE01C6A1A6A40F2FF7722F001021A624E
:103350001A4652F8186FC4F20007BB4272DCB3F190
:10336000804F7BD040F20047C4F20007BB4275D0CB
:1033700090E000BF0121002280F83C200846704701
:103380000368D1E900E6D1E902C11C6A1A6A360273
:1033900022F010021A621A4652F8185F4FF2FF0725
:1033A000BE4325F4734561F30F3624F0A0040EF0FC
:1033B0000A0746EA050144EA071711601F623AE06E
:1033C0000768D1E900C5D1E902313C6A3A6A61F384
:1033D000071522F480723A623A4652F81C6F26F0C2
:1033E000F30645EA06014FEA5C0666F349241160DC
:1033F0003C62116821F00C01116040E00368D1E9E2
:1034000000E6D1E902C11C6A1A6A360222F480522F
:103410001A621A4652F81C5F4FF2FF07BE4325F4AA
:10342000734561F30F364FEA5E0746EA050167F31D
:103430004D3411601C6211684FEA0C2321F4406185
:1034400011601CE042F60047C4F20107BB4205D000
:1034500040F60007C4F20007BB421BD126F003066A
:10346000354324F00A070CF00A066EF307153744BB
:103470009D611F629F6927F00C079F618B6811682F
:10348000194311600021BDE8F040002280F83C2083
:103490000846704746F00105E3E70000002804BF36
:1034A0000120704710B5044690F83D0028B900206F
:1034B00084F83C00204600F067F8022084F83D00C4
:1034C000206840F2FF730268C4F2000342F6004C29
:1034D0009842C4F2010C15DCB0F1804F1AD040F2D2
:1034E0000041C4F20001884214D0984218DCB0F1C7
:1034F000804F1DD040F20041C4F20001884217D035
:103500001AE000BF604505D040F60001C4F200019A
:103510008842EAD1A16822F070020A439842E6DDAF
:10352000604505D040F60001C4F20001884203D195
:10353000216922F440720A43A36922F08001D4F881
:1035400004E0E268194360450160C262C0F828E007
:1035500002D16169CCF8301001214161002084F86A
:10356000461084F83E1084F83F1084F8401084F828
:10357000411084F8421084F8431084F8441084F811
:10358000451084F83D1010BD7047000061B1082956
:1035900016D0042919BF00F1410200F1450300F1E2
:1035A0003F0200F143030FE090F83E2090F84230D4
:1035B000012A4FF0010208BF012B1DD010467047B1
:1035C00000F1400200F1440312781B78012A4FF009
:1035D000010208BF012BF1D10222082918D00429C9
:1035E00022D180F83F2080F843204FEAB103032B1B
:1035F0004FF00102E2D821E0022280F83E2080F85C
:1036000042204FEAB103032B4FF00102D6D815E058
:1036100080F8402080F844204FEAB103032B4FF09C
:103620000102CBD80AE000BF80F8412080F8452095
:103630004FEAB103032B4FF00102BFD84BF6BC3C5D
:103640000068C0F6000C5CF823C0C36801F01F01DD
:1036500043EA0C03C360036A02FA01F123EA0102A0
:103660000262026A114340F2FF72C4F20002904209
:10367000016209DCB0F1804F12D040F20041C4F287
:10368000000188420CD010E042F60041C4F2010172
:10369000884205D040F60001C4F20001884204D1FE
:1036A000816801F00701062903D0016841F001019A
:1036B000016000221046704710B501680446086991
:1036C000800744BFC8685FEA807039D40869400742
:1036D00044BFC8685FEA40703ED40869000744BF31
:1036E000C8685FEA007045D40869C00644BFC8686E
:1036F0005FEAC0604AD40869C0071CBFC8685FEAB7
:10370000C07051D10869000644BFC8685FEA006014
:1037100052D40869400644BFC8685FEA406053D489
:103720000869800646BFC8685FEA806010BD6FF018
:10373000200220460A61BDE81040FFF70BBB00BF26
:103740006FF002000861012020778869800743D06C
:103750002046FFF779FD45E06FF004000861022084
:103760002077886910F4407F40D02046FFF76CFD39
:1037700042E000BF6FF00800086104202077C869AC
:1037800080073DD02046FFF75FFD3FE06FF010005F
:10379000086108202077C86910F4407F3AD020469D
:1037A000FFF752FD3CE000BF6FF0010008612046CA
:1037B00000F024FA2168A5E76FF080000861204638
:1037C000FFF7C6FA2168A4E76FF0400008612046C1
:1037D00000F00EFB2168A3E7204600F025F8204604
:1037E00000F09CF92168002020776FE7204600F068
:1037F0001BF8204600F092F92168002020776CE742
:10380000204600F011F8204600F088F921680020D9
:10381000207769E7204600F007F8204600F07EF99F
:1038200021680020207766E77047000090F83C3060
:10383000012B04BF022070474FEAB202032A3DD891
:103840002DE9F043DFE802F002407CB6036842F65F
:1038500000461D6A1A6AC4F2010622F001021A62C9
:103860001A465C6852F818CFB3428E68D1F800E06F
:1038700025F0020545EA06050CD1CE68D1E90578A8
:1038800024F4407425F00C0526F004063C4335432F
:1038900044EA08042CF0730747EA0E075C609F6156
:1038A0004F6809695F631D629F6947F008079F6160
:1038B0009F6927F004079F61ACE000BF012100224F
:1038C00080F83C2008467047036842F600461D6AAF
:1038D0001A6AC4F2010622F010021A621A46D3F8DC
:1038E00004C052F8184FB3428E68D1F800E025F0BA
:1038F000200545EA06150FD1CE68D1E905986FF08D
:10390000400725F0C00507EA061635432CF440674A
:1039100048EA090647EA860C24F4E64444EA0E27FE
:10392000C3F804C09F614F6809699F631D629F6966
:1039300047F400679F619F6927F480679F6168E093
:10394000036842F600461D6A1A6AC4F2010622F4B0
:1039500080721A621A46D3F804C052F81CEFB342C0
:103960008E680C6825F4007545EA06250FD1CE68EF
:10397000D1E90598360240F2FF4725F44065BE4381
:1039800035432CF4405748EA090647EA061C2EF056
:1039900073072743C3F804C0DF614F680969DF6319
:1039A0001D62DF6947F00807DF61DF6927F0040760
:1039B000DF612FE0036842F60047D3F820C01A6A9F
:1039C000C4F2010722F480521A621A465C6852F867
:1039D0001C5FD1F800E08E68BB4204D14F6924F42B
:1039E000804444EA87142CF4005747EA063725F44C
:1039F000E64646EA0E265C60DE614E6809691E6492
:103A00001F62DF6947F40067DF61DF6927F48067C1
:103A1000DF6109021368194311600021BDE8F0431A
:103A2000002280F83C20084670470000002804BFB0
:103A30000120704710B5044690F83D0028B90020D9
:103A400084F83C00204600F067F8022084F83D002E
:103A5000206840F2FF730268C4F2000342F6004C93
:103A60009842C4F2010C15DCB0F1804F1AD040F23C
:103A70000041C4F20001884214D0984218DCB0F131
:103A8000804F1DD040F20041C4F20001884217D09F
:103A90001AE000BF604505D040F60001C4F2000105
:103AA0008842EAD1A16822F070020A439842E6DD1A
:103AB000604505D040F60001C4F20001884203D100
:103AC000216922F440720A43A36922F08001D4F8EC
:103AD00004E0E268194360450160C262C0F828E072
:103AE00002D16169CCF8301001214161002084F8D5
:103AF000461084F83E1084F83F1084F8401084F893
:103B0000411084F8421084F8431084F8441084F87B
:103B1000451084F83D1010BD70470000704700004C
:103B200041B1082910D0042914BF00F1410200F16D
:103B30003F020BE090F83E20012A1CBF0120704795
:103B4000022280F83E2013E000F140021278012AA0
:103B50001CBF012070470222082907D0042914BF86
:103B600080F8412080F83F2002E000BF80F840202C
:103B7000006801F01F010122036A8A4023EA020162
:103B80000162036A42F64441C4F201011A43A1F101
:103B90004403984202620FD040F2FF71C4F2000168
:103BA000884213DCB0F1804F1CD040F20041C4F2D7
:103BB0000001884216D01AE00A6842F400420A6006
:103BC00040F2FF71C4F200018842EBDD42F6004191
:103BD000C4F20101884205D040F60001C4F20001A0
:103BE000884204D1816801F00701062903D00168E9
:103BF00041F0010101600020704700002DE9F04F05
:103C000087B004460068B0F1804F09D140F230001F
:103C1000C2F20000817809B3002181704FF080402A
:103C200040F60001C4F2000188422CD042F6004167
:103C3000C4F20101884240F0BE8040F2AC00C2F202
:103C4000000000214160816040F23001C2F20001B9
:103C500001220A70C26007B0BDE8F08F40F2AC05E7
:103C6000C2F20005287828B140F26440C2F2000098
:103C7000FFF7FCF9686A8047206840F60001C4F24B
:103C800000018842D2D140F23000C2F200004078F8
:103C900040F20C06C2F2000690B340F2A404C2F255
:103CA0000004204600F042FC04F066FB0025C4F24C
:103CB0007A45294604F036FA706040F2AC00C2F250
:103CC00000000021C16040680021C4F2702104F0AE
:103CD000CFFB04F01DFB3080204600F041FC04F0D7
:103CE0004BFB294604F01EFAD6F804900446B06057
:103CF0004846214604F0BCFB8246306104E000BF28
:103D0000D6E90194D6F810A03068D6F80CB005902A
:103D1000D6E90510049106905846214604F074FC3B
:103D200040F2AC08C2F20008D8E90761054604F089
:103D300037F94CF6CD41C3F6CC61C8F8200004F049
:103D400097FB00210746C4F22011284604F090FB9F
:103D5000394604F025F907462846314604F054FC5C
:103D6000394604F01DF94FF07E510646C8F81C5044
:103D70004FF07E5504F0AEF938B93046002104F01A
:103D8000B0F93546002808BF0025D8F82800C8F843
:103D900018500A280CDB0498069F019005984946A4
:103DA00022465B46CDF800A0029702F08DFA002073
:103DB0000130C8F8280007B0BDE8F08F4FEAB10124
:103DC000032984BF00207047DFE801F0020E060AD5
:103DD000006834300068704700683C300068704705
:103DE00000684030006870470068383000687047ED
:103DF00070470000FEE700002DE9F04782B004465E
:103E000000689A460B9D0A9E0368914643F48062BF
:103E1000026002680F4642F48071016020464FF054
:103E2000011100223346009500F032F950B12068AC
:103E30000068C00544BF4FF400702064032002B046
:103E4000BDE8F08740F202082068C0F2010807F0E0
:103E5000FE0707612046414632462B4600F0FEF938
:103E600020B1012002B0BDE8F08700BF0020019022
:103E700020682A4641690191806931460190019884
:103E8000204600F09FFAB0B92068BAF1010F09D0BE
:103E90004FEA19210161204631462A4600F092FA84
:103EA00048B920685FFA89F10161204631462A4607
:103EB00000F088FA60B1206C0428D2D12068016833
:103EC00041F400710160012002B0BDE8F08700BF3D
:103ED000206800220168334641F480710160204669
:103EE0004FF00111009500F0D3F800289FD147F062
:103EF000010C27682046414632462B46C7F810C0C1
:103F000002B0BDE8F04700F0A9B900002DE9F04388
:103F100083B0044600680D4601680A9F0B9E41F479
:103F2000807199469046016020464FF001110022B1
:103F30003B46009600F0ACF850B120680068C00520
:103F400044BF4FF400702064032003B0BDE8F08349
:103F5000206805F0FE0101610221C0F20101204646
:103F60003A46334600F07AF920B1012003B0BDE8AB
:103F7000F08300BF00200290206832464169029120
:103F80008069394602900298204600F01BFA58B129
:103F9000206C0428E9D12068016841F400710160B7
:103FA000012003B0BDE8F0832068B9F1010F0AD009
:103FB0004FEA1821016120463946324600F002FAE4
:103FC0000028E5D120685FFA88F10161002003B084
:103FD000BDE8F08370B50368044653F8140F40073A
:103FE00011D40E46481C29D086BB00BF1868400576
:103FF00027D4FDF7DBFA236853F8140F400737D5B1
:1040000018684007F2D5002070BD00BF186840074F
:10401000F9D41868400514D418684007F3D4186818
:1040200040050ED418684007EDD41868400508D440
:10403000186840074FF0000048BF70BD1868400581
:10404000E4D56FF480601860042012E0154603E0A8
:1040500053F8140F4007D6D418684005F1D4FDF783
:10406000A5FA401B2368B042F2D958694007EFD443
:10407000202000212022216384F83D2084F83E1076
:10408000226C10432064012084F83C1070BD0000B5
:104090002DE9F041054600681E46144601F47F02F2
:1040A00001338FB242D0DDF81880B2F5803F40F086
:1040B000878040693840C01BB0FA80F04009A042B8
:1040C00040F0C8804EB924E040693840C01BB0FAC7
:1040D00080F04009A04240F0BD80FDF767FAA0EBF8
:1040E00008012868B142EFD941693940C91BB1FACA
:1040F00081F14909A142E7D19BE000BF4069384006
:10410000C01BB0FA80F04009A0424FF0000040F020
:10411000A280FDF74BFA286841693940C91BB1FA02
:1041200081F14909A142E9D183E000BFB2F5803FA6
:1041300024D100BF41693940C91BB1FA81F1490955
:10414000A14240F0878041693940C91BB1FA81F131
:104150004909A14240F07E8041693940C91BB1FA4A
:1041600081F14909A14275D141693940C91BB1FAB0
:1041700081F14909A142DDD06CE000BF816939407D
:10418000C91BB1FA81F14909A14263D18169394062
:10419000C91BB1FA81F14909A1425BD1816939405A
:1041A000C91BB1FA81F14909A14253D18169394052
:1041B000C91BB1FA81F14909A142DFD04AE000BF31
:1041C00080693840C01BB0FA80F04009A04241D15C
:1041D00046B923E080693840C01BB0FA80F040093E
:1041E000A04237D1FDF7E2F9A0EB08012868B142FF
:1041F000F0D981693940C91BB1FA81F14909A1425D
:10420000E8D116E080693840C01BB0FA80F0400960
:10421000A0424FF0000018BFBDE8F081FDF7C6F9DD
:10422000286881693940C91BB1FA81F14909A14265
:10423000E8D100202021286385F83D1085F83E0054
:10424000296C41F02001296485F83C000120BDE87B
:10425000F08100BF0020BDE8F0810000F0B581B022
:10426000044600681D4643698FB203EA0701B9425C
:1042700002D1002001B0F0BD4169164601323FD0A5
:1042800049053FD4CEB100BFFDF790F9411B20682E
:10429000B14203D941693940B94215D14169394028
:1042A000B942E6D041694905EED52BE04169394074
:1042B000B942DED04169490524D4FDF777F9206879
:1042C00041693940B942F1D0202023E041693940A9
:1042D000B942CED04169490514D441693940B94247
:1042E000C7D0416949050DD441693940B942C0D0B0
:1042F0004169490506D441693940B942B9D041699B
:104300004905E3D5016841F4007101606FF48061F3
:104310004161042000212022216384F83D2084F89B
:104320003E10226C1043206484F83C10012001B040
:10433000F0BD000070B504460068154650F8143F03
:104340005A063DD40E4629B926E000BF50F8141F86
:10435000490635D40168C90621D4FDF727F9411B68
:104360002068B142F2D941694906EFD400202021EA
:10437000206384F83D1084F83E00206C40F020005B
:1043800018E000BFFDF712F9206850F8141F490625
:10439000ECD50168490613D40168C906F2D56FF05F
:1043A0001001016000202021206384F83D1084F872
:1043B0003E00206C2064002084F83C00012070BD89
:1043C000002070BD70B50368044653F8140F000652
:1043D00011D40E46481C29D086BB00BF1868400582
:1043E00027D4FDF7E3F8236853F8140F000637D5F8
:1043F00018680006F2D5002070BD00BF18680006DE
:10440000F9D41868400514D418680006F3D4186865
:1044100040050ED418680006EDD41868400508D48D
:10442000186800064FF0000048BF70BD18684005CE
:10443000E4D56FF480601860042012E0154603E0B4
:1044400053F8140F0006D6D418684005F1D4FDF7D0
:10445000ADF8401B2368B042F2D958690006EFD48A
:10446000202000212022216384F83D2084F83E1082
:10447000226C10432064012084F83C1070BD0000C1
:104480002DE9F04186B00B4640F2980704460160E2
:104490000271C2F2000700255100184603220223D0
:1044A0003D807D600226FDF739F918B1284606B037
:1044B000BDE8F08180212068ADF812100DF11201E5
:1044C0004FF47A788DE842018021002201230125F2
:1044D000FDF7D2FB0120FCF701FE0520C5F200002C
:1044E0004FF07A51C7E9000150212068ADF814104F
:1044F00005A9CDE90016802105220123CDF8088009
:10450000FDF7BAFB4FF609712068ADF816100DF1F2
:104510001601CDE90016802100220123CDF8088084
:10452000FDF7AAFB284606B0BDE8F08180B584B04F
:10453000006802210DF10E024FF47A7CCDE90021D2
:10454000802102220123CDF808C0FDF7F1F9BDF862
:104550000E006FF0030100BA01EA504004B080BDC4
:1045600080B584B0006802210DF10E024FF47A7C10
:10457000CDE90021802104220123CDF808C0FDF7F8
:10458000D7F9BDF80E0040F29801C2F2000100BA5E
:104590000988000CB0FBF1F004B080BD2DE9F043B8
:1045A00083B040F60004C4F201041646894607466B
:1045B0002046082100229846FCF7F2FF2A208DF8B9
:1045C0000100204610210022FCF7EAFF40F2C4352A
:1045D000C2F200050DF10101284601226423FEF715
:1045E000A5FA204610210122FCF7DAFF2046082117
:1045F0000122FCF7D5FF380A8DF802002046102171
:104600000022FCF7CDFF0DF10201284601226423B0
:10461000FEF78CFA204610210122FCF7C1FF20464C
:10462000102100228DF80370FCF7BAFF0DF1030191
:10463000284601226423FEF779FA20461021012240
:10464000FCF7AEFF300A8DF804002046102100224E
:10465000FCF7A6FF01A9284601226423FEF766FAAB
:10466000204610210122FCF79BFF2046102100224A
:104670008DF80560FCF794FF0DF105012846012235
:104680006423FEF753FA204610210122FCF788FF2D
:10469000204608210022FCF783FF2B208DF806001E
:1046A000204610210022FCF77BFF0DF10601284671
:1046B00001226423FEF73AFA204610210122FCF77A
:1046C0006FFF204608210122FCF76AFF09F122064C
:1046D000300A8DF80700204610210022FCF760FF09
:1046E0000DF10701284601226423FEF71FFA204638
:1046F00010210122FCF754FF2046102100228DF8E2
:104700000860FCF74DFF02A9284601226423FEF74A
:104710000DFA204610210122FCF742FF08F1220683
:10472000300A8DF80900204610210022FCF738FFDE
:104730000DF10901284601226423FEF7F7F920460E
:1047400010210122FCF72CFF2046102100228DF8B9
:104750000A60FCF725FF0DF10A01284601226423B7
:10476000FEF7E4F9204610210122FCF719FF20464C
:1047700008210022FCF714FF2C208DF80B002046A6
:1047800010210022FCF70CFF0DF10B01284601223D
:104790006423FEF7CBF9204610210122FCF700FF2D
:1047A000204608210122FCF7FBFE03B0BDE8F083A0
:1047B0002DE9F04F83B005460C46111AB2EB050BFC
:1047C00018BF4FF0FF3B00290F4648BF4F42012959
:1047D000A3EB04004FF00106A8BFB346191B18BF96
:1047E0004FF0FF310028029044BF4342029301285A
:1047F000B8BF0E4602984FF0000A4FF000094FF084
:104800000008874288BF3846019000BFA8B2A1B215
:1048100002460B46FFF7C2FE0C9801F043FA0299DC
:10482000019B09EB07005144B0EB030908F10108B3
:10483000D4BF81465D44B1EB030A1FFA88F0D4BFB0
:104840008A4634448342E1D203B0BDE8F08F0000D1
:1048500010B5144602460B46FFF7A0FE2046BDE801
:10486000104001F01FBA00002DE9F04F89B0079009
:10487000129800930692ADF82200BDF822008B46F4
:10488000002800F0B780DDE906321398A3EB020A96
:1048900045BA581ED71A4FEA4A0103975F1CD24304
:1048A00080B2079C02971A44059088B25F46019235
:1048B000049023E0B9B2059A20460B46FFF76EFE3E
:1048C00040F60006C4F20106304610210022FCF733
:1048D00067FE40F2C430049AC2F2000041464FF431
:1048E0007A73FEF723F9304610210122FCF758FEB7
:1048F000BDF822000137584487427BD2BDF8220020
:1049000002F0C4FFBDF82220BDF82230804603FB30
:1049100002F0BDF82220BDF82260ABEB07031A4479
:10492000334403FB1200894602F099FF02F03BFE7C
:1049300002460B464046494603F018FA02F060FF73
:1049400086B236B140F2D8007100C2F20000FBF727
:10495000F1FDAAEB0600864236DA0799069A01EBCA
:104960004601511A11F0030218D040F2D803C2F2E6
:104970000003012A06F1010123F8165007D023F89D
:104980001150B11C022A1CBF23F81150F11C019ACE
:10499000A2EB4602032A07D216E000BF3146019A75
:1049A000A2EB4602032A0FD340F2D802C2F2000261
:1049B00002EB4102083A00BF043122F8085F81424D
:1049C00055809580D580F7DB40F2D808002EC2F2E2
:1049D00000083FF46FAF029A3119511A5145D8BF00
:1049E0005146039A08EB4000114431444900FBF75B
:1049F0007FFD5FE7BDF82200BDF8221000EB0B053C
:104A0000DDF800B0ABEB0100854200F39480DDE9F6
:104A10000632991A581E00294FEA41075CDD0597B6
:104A2000139FD24340F2D80440F6000A7FBA1A44DA
:104A300001F0030821F0030986B2C2F20004C4F2B7
:104A4000010A049223E000BFA9B2079832460B4640
:104A5000FFF7A4FD504610210022FCF7A1FD0598A8
:104A6000214682B240F2C430C2F200004FF47A73A1
:104A7000FEF75CF8504610210122FCF791FDBDF8CD
:104A80002200ABEB0000854205F1010553DA0498E2
:104A9000032801D200200FE040F2D800C2F200004B
:104AA000A0F10801002000BF043021F8087F8145F3
:104AB0004F808F80CF80F7D1B8F1000FC4D0B8F10C
:104AC000010F24F81070BFD004EB4000B8F1020FC2
:104AD000478018BF8780B7E740F2C43840F2D80952
:104AE00040F600041FFA80FABFB2C2F20008C2F218
:104AF0000009C4F2010400BFA9B2079852460B4650
:104B0000FFF74CFD204610210022FCF749FD4046EE
:104B100049463A464FF47A73FEF708F820461021CA
:104B20000122FCF73DFDBDF82200ABEB0000854201
:104B300005F10105E0DBBDF82200079E002800F02A
:104B4000AB80069BABEB00051398F21AA3EB0608AB
:104B500004925A1C90FA90F9581E4FEA48010392A9
:104B6000F2431A4480B21FFA81FA029205901FE0C4
:104B7000A9B2059A30460B46FFF710FD40F6000437
:104B8000C4F20104204610210022FCF709FD40F286
:104B9000C430C2F20000394652464FF47A73FDF732
:104BA000C5FF204610210122FCF7FAFC5D4573DAAF
:104BB000BDF82200013502F069FEBDF82220BDF8E3
:104BC0002230044603FB02F0BDF82230BDF822700B
:104BD000A5EB0B0213443A4402FB13000F4602F00C
:104BE0003EFE02F0E0FC02460B462046394603F04A
:104BF000BDF802F005FE84B240F2D807C2F2000709
:104C00001CB161003846FBF795FCA8EB0400844218
:104C10002FDA069A06EB4401511A11F0030213D061
:104C2000012A04F1010127F8149007D027F8119008
:104C3000A11C022A1CBF27F81190E11C029AA2EBCA
:104C40004402032A06D214E02146029AA2EB44024F
:104C5000032A0ED307EB4102083A00BF043122F8C1
:104C6000089F8142A2F80290A2F80490A2F8069050
:104C7000F4DB002C3FF47CAF039AA119511A414593
:104C8000D8BF4146049A07EB400011442144490033
:104C9000FBF72EFC6CE700BF09B0BDE8F08F000009
:104CA0002DE9F0470D460746501E591E9A4691467B
:104CB000089C82B28BB238462946FFF76FFCA9EBFD
:104CC00007084046FBF7AAFAB945064623D9F94337
:104CD00060BA18F00303494432460ED0012B22F883
:104CE000020B05D1013789B2032909D213E000BFB5
:104CF000022B708038D1321D023789B203290AD3C2
:104D0000A2F108010437BAB221F8080F4A454880D9
:104D10008880C880F6D340F60009C4F201094846ED
:104D200010210022FCF73CFC554512D24FEA480006
:104D300040F2C43487B2C2F2000400BF20463146BC
:104D40003A464FF47A73FDF7F1FE0135A8B25045AB
:104D5000F4D3484610210122FCF722FC3046BDE87E
:104D6000F047FBF78ABA00BFB21D0337B08089B2A3
:104D70000329C5D2CFE700002DE9F04F81B040F6FE
:104D80000004C4F2010420460421002204264FF04E
:104D9000000AFCF705FC1E20FCF7A0F920460421C0
:104DA00001224FF00108FCF7FBFB6420FCF796F9A9
:104DB0006420FCF793F9204608210022FCF7F0FB61
:104DC00011208DF80300204610210022FCF7E8FB9B
:104DD00040F2C435C2F200050DF10301284601225C
:104DE0006423FDF7A3FE204610210122FCF7D8FB27
:104DF000204608210122FCF7D3FB2046082100228F
:104E0000FCF7CEFB36208DF803002046102100224F
:104E1000FCF7C6FB0DF10301284601226423FDF7D0
:104E200085FE204610210122FCF7BAFB204608210E
:104E30000122FCF7B5FB70208DF8030020461021FD
:104E40000022FCF7ADFB0DF103012846012264238B
:104E5000FDF76CFE204610210122FCF7A1FB204645
:104E600008210022FCF79CFB3A208DF80300204625
:104E700010210022FCF794FB0DF1030128460122CA
:104E80006423FDF753FE204610210122FCF788FB26
:104E9000204608210122FCF783FB4FF0050B20463A
:104EA000102100228DF803B0FCF77AFB0DF103010D
:104EB000284601226423FDF739FE204610210122F5
:104EC000FCF76EFB204608210022FCF769FBB220AC
:104ED0008DF80300204610210022FCF761FB0DF144
:104EE0000301284601226423FDF720FE20461021FD
:104EF0000122FCF755FB204608210122FCF750FB5C
:104F00000C272046102100228DF80370FCF748FB87
:104F10000DF10301284601226423FDF707FE204618
:104F200010210122FCF73CFB2046102100228DF8C5
:104F30000370FCF735FB0DF10301284601226423C1
:104F4000FDF7F4FD204610210122FCF729FB204645
:104F5000102100228DF803A0FCF722FB0DF10301C4
:104F6000284601226423FDF7E1FD2046102101229D
:104F7000FCF716FB4FF033092046102100228DF874
:104F80000390FCF70DFB0DF1030128460122642379
:104F9000FDF7CCFD204610210122FCF701FB204645
:104FA000102100228DF80390FCF7FAFA0DF10301AD
:104FB000284601226423FDF7B9FD20461021012275
:104FC000FCF7EEFA204608210022FCF7E9FAB720A8
:104FD0008DF80300204610210022FCF7E1FA0DF1C4
:104FE0000301284601226423FDF7A0FD204610217D
:104FF0000122FCF7D5FA204608210122FCF7D0FA5D
:1050000035272046102100228DF80370FCF7C8FADE
:105010000DF10301284601226423FDF787FD204698
:1050200010210122FCF7BCFA204608210022FCF7DF
:10503000B7FABB208DF80300204610210022FCF7B0
:10504000AFFA0DF10301284601226423FDF76EFD3E
:10505000204610210122FCF7A3FA20460821012254
:10506000FCF79EFA2046102100228DF80370FCF711
:1050700097FA0DF10301284601226423FDF756FD3E
:10508000204610210122FCF78BFA2046082100223D
:10509000FCF786FAC0208DF803002046102100227C
:1050A000FCF77EFA0DF10301284601226423FDF787
:1050B0003DFD204610210122FCF772FA204608210E
:1050C0000122FCF76DFA2C208DF8030020461021F8
:1050D0000022FCF765FA0DF1030128460122642342
:1050E000FDF724FD204610210122FCF759FA204645
:1050F00008210022FCF754FAC2208DF80300204654
:1051000010210022FCF74CFA0DF103012846012280
:105110006423FDF70BFD204610210122FCF740FA25
:10512000204608210122FCF73BFA204610210022EC
:105130008DF80380FCF734FA0DF1030128460122B3
:105140006423FDF7F3FC204610210122FCF728FA26
:10515000204608210022FCF723FAC3208DF8030023
:10516000204610210022FCF71BFA0DF1030128460E
:1051700001226423FDF7DAFC204610210122FCF70E
:105180000FFA204608210122FCF70AFA13208DF8B5
:105190000300204610210022FCF702FA0DF1030162
:1051A000284601226423FDF7C1FC2046102101227C
:1051B000FCF7F6F9204608210022FCF7F1F9C4209B
:1051C0008DF80300204610210022FCF7E9F90DF1CB
:1051D0000301284601226423FDF7A8FC2046102184
:1051E0000122FCF7DDF9204608210122FCF7D8F95D
:1051F00020208DF80300204610210022FCF7D0F972
:105200000DF10301284601226423FDF78FFC20469F
:1052100010210122FCF7C4F9204608210022FCF7E6
:10522000BFF9C6208DF80300204610210022FCF7AC
:10523000B7F90DF10301284601226423FDF776FC3E
:10524000204610210122FCF7ABF92046082101225B
:10525000FCF7A6F90F208DF803002046102100224C
:10526000FCF79EF90DF10301284601226423FDF7A6
:105270005DFC204610210122FCF792F9204608210E
:105280000022FCF78DF9D0208DF803002046102174
:105290000022FCF785F90DF1030128460122642361
:1052A000FDF744FC204610210122FCF779F9204645
:1052B00008210122FCF774F9A4208DF80300204690
:1052C00010210022FCF76CF90DF1030128460122A0
:1052D0006423FDF72BFC204610210122FCF760F926
:1052E000A1272046102100228DF80370FCF758F901
:1052F0000DF10301284601226423FDF717FC204627
:1053000010210122FCF74CF9204608210022FCF76D
:1053100047F9D6208DF80300204610210022FCF723
:105320003FF90DF10301284601226423FDF7FEFB3E
:10533000204610210122FCF733F9204608210122E2
:10534000FCF72EF92046102100228DF80370FCF79F
:1053500027F90DF10301284601226423FDF7E6FB3E
:10536000204610210122FCF71BF9204608210022CB
:10537000FCF716F9E0208DF80300204610210022EA
:10538000FCF70EF90DF10301284601226423FDF715
:10539000CDFB204610210122FCF702F9204608210E
:1053A0000122FCF7FDF8F0272046102100228DF89D
:1053B0000370FCF7F5F80DF1030128460122642380
:1053C000FDF7B4FB204610210122FCF7E9F8204646
:1053D000102100228DF803A0FCF7E2F80DF1030183
:1053E000284601226423FDF7A1FB2046102101225B
:1053F000FCF7D6F82046102100228DF80360FCF758
:10540000CFF80DF10301284601226423FDF78EFB3E
:10541000204610210122FCF7C3F82046102100226B
:105420008DF80360FCF7BCF80DF10301284601225A
:105430006423FDF77BFB204610210122FCF7B0F826
:105440002046102100228DF80360FCF7A9F80DF129
:105450000301284601226423FDF768FB2046102142
:105460000122FCF79DF82046102100228DF803B0A0
:10547000FCF796F80DF10301284601226423FDF79D
:1054800055FB204610210122FCF78AF84FF029082D
:105490002046102100228DF80380FCF781F80DF1E1
:1054A0000301284601226423FDF740FB204610211A
:1054B0000122FCF775F82046102100228DF8039098
:1054C000FCF76EF80DF10301284601226423FDF775
:1054D0002DFB204610210122FCF762F84FF03E0A16
:1054E0002046102100228DF803A0FCF759F80DF199
:1054F0000301284601226423FDF718FB20461021F2
:105500000122FCF74DF838208DF8030020461021C9
:105510000022FCF745F80DF103012846012264231F
:10552000FDF704FB204610210122FCF739F8122672
:105530002046102100228DF80360FCF731F80DF1B0
:105540000301284601226423FDF7F0FA20461021CA
:105550000122FCF725F82046102100228DF8036077
:10556000FCF71EF80DF10301284601226423FDF724
:10557000DDFA204610210122FCF712F828262046E9
:10558000102100228DF80360FCF70AF80DF10301E9
:10559000284601226423FDF7C9FA20461021012282
:1055A000FBF7FEFF30208DF803002046102100227B
:1055B000FBF7F6FF0DF10301284601226423FDF7F6
:1055C000B5FA204610210122FBF7EAFF2046082108
:1055D0000022FBF7E5FFE1208DF8030020461021B3
:1055E0000022FBF7DDFF0DF10301284601226423B1
:1055F000FDF79CFA204610210122FBF7D1FF20463F
:1056000008210122FBF7CCFF2046102100228DF853
:105610000370FBF7C5FF0DF1030128460122642347
:10562000FDF784FA204610210122FBF7B9FF072776
:105630002046102100228DF80370FBF7B1FF0DF119
:105640000301284601226423FDF770FA2046102149
:105650000122FBF7A5FF0A208DF803002046102148
:105660000022FBF79DFF0DF1030128460122642370
:10567000FDF75CFA204610210122FBF791FF0D2077
:105680008DF80300204610210022FBF789FF0DF161
:105690000301284601226423FDF748FA2046102121
:1056A0000122FBF77DFF0B208DF80300204610211F
:1056B0000022FBF775FF0DF1030128460122642348
:1056C000FDF734FA204610210122FBF769FF20463E
:1056D000102100228DF80370FBF762FF0DF103012A
:1056E000284601226423FDF721FA204610210122D9
:1056F000FBF756FF2046102100228DF80360FBF7D0
:105700004FFF0DF10301284601226423FDF70EFA35
:10571000204610210122FBF743FF204610210022E2
:105720008DF80390FBF73CFF0DF1030128460122A1
:105730006423FDF7FBF9204610210122FBF730FF1F
:105740002046102100228DF803A0FBF729FF0DF160
:105750000301284601226423FDF7E8F920461021C1
:105760000122FBF71DFF36208DF803002046102193
:105770000022FBF715FF0DF10301284601226423E7
:10578000FDF7D4F9204610210122FBF709FF14266A
:105790002046102100228DF80360FBF701FF0DF178
:1057A0000301284601226423FDF7C0F92046102199
:1057B0000122FBF7F5FE2046102100228DF8036040
:1057C000FBF7EEFE0DF10301284601226423FDF7ED
:1057D000ADF9204610210122FBF7E2FE2046102100
:1057E00000228DF80380FBF7DBFE0DF10301284654
:1057F00001226423FDF79AF9204610210122FBF7CC
:10580000CFFE32208DF80300204610210022FBF746
:10581000C7FE0DF10301284601226423FDF786F936
:10582000204610210122FBF7BBFE20460821002262
:10583000FBF7B6FE21208DF8030020461021002240
:10584000FBF7AEFE0DF10301284601226423FDF7AC
:105850006DF9204610210122FBF7A2FE2046082107
:105860000122FBF79DFE204608210022FBF798FE4F
:1058700011208DF80300204610210022FBF790FE36
:105880000DF10301284601226423FDF74FF920465C
:1058900010210122FBF784FE204608210122FBF79C
:1058A0007FFE7820FBF71AFC204608210022FBF738
:1058B00077FE2046102100228DF80380FBF770FE52
:1058C0000DF10301284601226423FDF72FF920463C
:1058D00010210122FBF764FE204608210122FBF77C
:1058E0005FFE01B0BDE8F08F2DE9F04F85B00F9E4F
:1058F00081464FEA560B300904931546884601212C
:105900005FEA4B7218BF01EB161000FB06F409EBBF
:10591000560008EB06010138013982B28BB24846C5
:105920004146FEF73BFE002C00F09581A6F10C00ED
:10593000C0F3850040EA8610C2B2052A00F28B81CE
:105940000120904010F02B0F00F085811099A5F1F7
:10595000200000294AF2EA3E48F2B67348F62A4C83
:1059600049F21A21C0B2C0F6000EC0F60003C0F61C
:10597000000CC0F60001039200F0C48000EB40066A
:1059800003EB860701EB0613002502930CEB0013D3
:105990000EEB80104E460193009000BF032A05D005
:1059A000012A05D038462AB1009802E0029800E0AA
:1059B0000198284490F800A05FEACA700AD0B0B2FB
:1059C0001FFA88F102460B46FEF7E8FD049800F046
:1059D00069F9039A701C80B2A0EB0901594500F0E7
:1059E00087805FEA8A7109D51FFA88F102460B4663
:1059F000FEF7D4FD049800F055F9039AB01C80B26C
:105A0000A0EB0901594573D05FEA4A7109D51FFA25
:105A100088F102460B46FEF7C1FD049800F042F9FA
:105A2000039AF01C80B2A0EB0901594560D05FEAEF
:105A30000A7109D51FFA88F102460B46FEF7AEFD42
:105A4000049800F02FF9039A301D80B2A0EB0901F1
:105A500059454DD05FEACA6109D51FFA88F102465F
:105A60000B46FEF79BFD049800F01CF9039A701D8D
:105A700080B2A0EB090159453AD05FEA8A6109D5A5
:105A80001FFA88F102460B46FEF788FD049800F0E5
:105A900009F9039AB01D80B2A0EB0901594527D03E
:105AA0005FEA4A6109D51FFA88F102460B46FEF704
:105AB00075FD049800F0F6F8039AF01D80B2A0EB93
:105AC0000901594514D04FFA8AF1B1F1FF3F09DCC1
:105AD0001FFA88F102460B46FEF760FD049800F0BD
